:020000040800F2
:10000000002800201D190008850D00088B0D000830
:10001000910D0008970D00089D0D000800000000DC
:10002000000000000000000000000000A30D000818
:10003000AF0D000800000000BB0D0008C70D000850
:100040006519000865190008651900086519000898
:100050006519000865190008651900086519000888
:100060006519000865190008651900086519000878
:100070006519000865190008651900086519000868
:100080006519000865190008651900086519000858
:100090006519000865190008651900086519000848
:1000A0006519000865190008651900086519000838
:1000B000D50D00086519000800000000651900084A
:1000C0006519000800000000000000006519000824
:1000D0000000000065190008E90D0008000000009C
:1000E000651900086519000865190008000000007E
:1000F0000000000000000000000000000000000000
:0C01000000000000000000005FF808F1A3
:10010C0010B5054C237833B9044B13B10448AFF345
:10011C0000800123237010BDCC00002000000000E3
:10012C009044000808B5034B1BB103490348AFF3D7
:10013C00008008BD00000000D000002090440008A2
:10014C0080B582B000AF00237B60A3E0564A7B6889
:10015C0052F8232055497B6841F82320544A7B6888
:10016C0052F8232050497B6841F823207B68032BED
:10017C0038D801A252F823F095010008AB01000811
:10018C00C1010008D901000801214A4801F080FF93
:10019C0003461946464A7B6842F8231023E00221A5
:1001AC00444801F075FF03461946414A7B6842F802
:1001BC00231018E04FF480513E4801F069FF0346CC
:1001CC0019463B4A7B6842F823100CE04FF400417F
:1001DC00384801F05DFF03461946354A7B6842F802
:1001EC00231000E000BF304A7B6852F823203049CE
:1001FC007B6851F823309A4249D12B4A7B6852F8DC
:10020C0023202A497B6851F823309A423FD1274A50
:10021C007B6852F8232028497B6851F823309A4296
:10022C0021D0224A7B6852F8232023497B6841F86D
:10023C002320214A7B6852F82330002B08D11F4A17
:10024C007B68C82142F82310786800F03DF81EE066
:10025C001B4A7B68002142F823101A4A7B68002154
:10026C0042F8231013E0154A7B6852F823305A1ECB
:10027C0012497B6841F82320104A7B6852F82330DE
:10028C00002B04D10C4A7B68012142F823107B68B7
:10029C0001337B607B68032B7FF758AF00BF00BF37
:1002AC000837BD4680BD00BF100000202000002094
:1002BC000000002000080140300000204000002019
:1002CC0008010020E800002080B483B000AF786003
:1002DC000F4A7B68012142F823100E4A7B6852F8C2
:1002EC002330002B05D10B4A7B68012142F82310E7
:1002FC0009E0094A7B68012142F82310044A7B6813
:10030C00002142F8231000BF0C37BD4680BC70475B
:10031C00F8000020E80000200801002080B483B021
:10032C0000AF7860094A7B6852F82330012B06D164
:10033C00064A7B68002142F82310012300E00023C9
:10034C0018460C37BD4680BC704700BFF800002033
:10035C0080B483B000AF7860064A7B6852F82330D3
:10036C00012B0CBF01230023DBB218460C37BD4612
:10037C0080BC70470801002080B483B000AF0346F6
:10038C003960FB71FB793A680549A1FB0212D2086E
:10039C00044941F8232000BF0C37BD4680BC704790
:1003AC00CDCCCCCC4801002080B485B000AF034646
:1003BC00FB71FB79154A52F8232013469B0013441A
:1003CC005B001A46124BA3FB02139B094FF47A7184
:1003DC0001FB03F3D31A002B14BF01230023DBB260
:1003EC00FB60FB79094A52F8232013469B00134407
:1003FC005B001A46064BA3FB02239A09FB681344C5
:10040C0018461437BD4680BC704700BF4801002019
:10041C00D34D621080B400AF0C4B1B68002B03D083
:10042C000A4B1B68013B00E00023084A1360074B92
:10043C005B68002B03D0054B5B68013B00E000239D
:10044C00024A536000BFBD4680BC70474801002083
:10045C0080B400AF054B1A68044B5B681A44034B1D
:10046C009B6813441846BD4680BC70475000002062
:10047C0080B500AF012240F6C371024801F01FFEA7
:10048C0000BF80BD0008014080B582B000AF0346BC
:10049C000A46FB711346BB71FB79072B00F08B806E
:1004AC00072B00F3A580052B02D0062B3FD09FE035
:1004BC00BB79022B29D0022B00F39C80002B02D09D
:1004CC00012B11D096E0002240214E4801F0F7FD9F
:1004DC00012280214B4801F0F2FD01224FF4807182
:1004EC00484801F0ECFD21E000228021454801F054
:1004FC00E6FD01224021434801F0E1FD01224FF4C9
:10050C008071404801F0DBFD10E000224FF4807157
:10051C003C4801F0D4FD012280213A4801F0CFFD86
:10052C0001224021374801F0CAFD00BF62E0BB79CF
:10053C00022B2CD0022B5FDC002B02D0012B13D012
:10054C005AE000224FF400712E4801F0B8FD012250
:10055C004FF480612B4801F0B2FD01224FF4006191
:10056C00284801F0ACFD25E000224FF480612548BD
:10057C0001F0A5FD01224FF40071224801F09FFD0E
:10058C0001224FF400611F4801F099FD12E0002296
:10059C004FF400611B4801F092FD01224FF40071F1
:1005AC00184801F08CFD01224FF48061154801F0D0
:1005BC0086FD00BF20E0BB79002B02D0012B0BD0B5
:1005CC001BE000220121104801F079FD01220221DB
:1005DC000D4801F074FD0AE0002202210A4801F0E6
:1005EC006EFD01220121084801F069FD00BF04E005
:1005FC0000BF02E000BF00E000BF00BF0837BD46EF
:10060C0080BD00BF00080140000C014080B582B0E5
:10061C0000AF03460A46FB711346BB71FB79072BEF
:10062C0044D0072B55DC052B02D0062B1ED050E0F6
:10063C00BB79022B12D0022B4DDC002B02D0012BEC
:10064C0006D048E001224021264801F038FD0CE09C
:10065C0001228021234801F032FD06E001224FF4F3
:10066C008071204801F02BFD00BF34E0BB79022BD8
:10067C0014D0022B31DC002B02D0012B07D02CE044
:10068C0001224FF40071174801F019FD0DE0012211
:10069C004FF48061134801F012FD06E001224FF483
:1006AC000061104801F00BFD00BF16E0BB79002B78
:1006BC0002D0012B06D011E0012201210A4801F0E1
:1006CC00FEFC05E001220221074801F0F8FC00BF06
:1006DC0004E000BF02E000BF00E000BF00BF08372D
:1006EC00BD4680BD00080140000C014080B582B0C1
:1006FC0000AF0346FB71094B1B78472B05D1FB79E7
:10070C0019460720FFF7C0FE04E0FB7919460720C5
:10071C00FFF77CFF00BF0837BD4680BD1E010020DF
:10072C0080B582B000AF78607B681B68044A934246
:10073C0001D101F0ADF800BF0837BD4680BD00BF48
:10074C000044004080B500AF01F008F900F02CF82F
:10075C0000F0DCF800F064F800F0AEF8104802F09D
:10076C0049F900F041FC00F0FBFC00F045F94FF4B6
:10077C00FA71002000F076FC002000F08DFC03469E
:10078C00002B08D04FF4FA71002000F06BFC2021F4
:10079C00044801F0ACFC00F077FF00F0E7F9EBE760
:1007AC007C0100200008014080B590B000AF07F13B
:1007BC00180328220021184603F022FA3B1D0022C0
:1007CC001A605A609A60DA601A610223BB610123D5
:1007DC00BB621023FB6200237B6307F118031846EE
:1007EC0001F09EFC0346002B01D000F0FFF80F2314
:1007FC007B600023BB600023FB6000233B61002374
:10080C007B613B1D0021184601F00AFF0346002BBB
:10081C0001D000F0EBF800BF4037BD4680BD0000B2
:10082C0080B586B000AF07F1080300221A605A6049
:10083C009A60DA603B4600221A605A601D4B4FF0FA
:10084C0080421A601B4B09225A601A4B00229A6094
:10085C00184B41F63F72DA60164B00221A61154BA9
:10086C0000229A61134802F075F80346002B01D060
:10087C0000F0BCF84FF48053BB6007F10803194635
:10088C000C4802F00BFA0346002B01D000F0AEF836
:10089C0000233B6000237B603B461946054802F071
:1008AC00D3FB0346002B01D000F0A0F800BF183793
:1008BC00BD4680BD7C01002080B500AF114B124AB3
:1008CC001A60104B4FF416525A600E4B00229A606D
:1008DC000C4B0022DA600B4B00221A61094B0C22E4
:1008EC005A61084B00229A61064B0022DA610548D6
:1008FC0002F014FC0346002B01D000F077F800BF87
:10090C0080BD00BFD00100200044004080B586B0FF
:10091C0000AF07F1080300221A605A609A60DA608F
:10092C00284B9B69274A43F004039361254B9B6931
:10093C0003F004037B607B68224B9B69214A43F0E4
:10094C00080393611F4B9B6903F008033B603B68F2
:10095C0000224FF47E611C4801F0B1FB0022032100
:10096C001A4801F0ACFB49F20303BB600023FB60A7
:10097C0001233B6107F108031946134801F00EFAF5
:10098C004FF47E63BB600123FB6000233B610223B9
:10099C007B6107F1080319460B4801F0FFF90323AB
:1009AC00BB600123FB6000233B6102237B6107F1E9
:1009BC0008031946054801F0F1F900BF1837BD4688
:1009CC0080BD00BF0010024000080140000C014037
:1009DC0080B582B000AF786000F014FBFFF7B0FB7D
:1009EC00FFF718FD00BF0837BD4680BD80B400AFCF
:1009FC0072B600BFFEE7000080B400AF064B322297
:100A0C001A70064B3C221A70054B48221A7000BF14
:100A1C00BD4680BC704700BFC40100201D010020F2
:100A2C001E01002080B500AF0120FFF7BDFC03467E
:100A3C00094A1360084B1A68084B1B689A4205D088
:100A4C00054B1B681946064800F03EFF024B1B681D
:100A5C00024A136000BF80BD280100202401002041
:100A6C00A844000880B500AFFFF7F2FC03463B4AF0
:100A7C001360062000F010FB0346002B0FD04FF440
:100A8C009671062000F0EEFA354B1B78482B03D1FB
:100A9C00334B47221A7002E0314B48221A70314B0B
:100AAC001B783E2B2ED03E2B50DC3C2B02D03D2B0A
:100ABC0004D04BE02B4B3D221A704CE0FFF7B2FFF9
:100ACC00294B1B68032B04D900210720FFF7DCFC02
:100ADC0002E00020FFF70AFE0320FFF71FFC03468D
:100AEC00002B35D0042000F0EFFA1C4B1B68194684
:100AFC00042000F0B7FA194B1B6819460120FFF7C8
:100B0C003BFC25E0FFF78EFF174B1B68032B04D92A
:100B1C0001210720FFF7B8FC02E00120FFF7E6FDFA
:100B2C000320FFF7FBFB0346002B13D0042000F03F
:100B3C00CBFA0A4B1B681946042000F093FA074BBA
:100B4C001B6819460120FFF717FC03E000BF02E009
:100B5C0000BF00E000BF00BF80BD00BF200100202F
:100B6C001E0100201D0100202801002080B500AFCF
:100B7C002B4B1B78342B40D0342B4ADC322B02D03D
:100B8C00332B0CD045E000210720FFF73FFD01215E
:100B9C000720FFF73BFD224B33221A703EE0002169
:100BAC000720FFF733FD01210720FFF72FFD03205E
:100BBC00FFF7B4FB0346002B2DD0194B34221A70CF
:100BCC00FFF746FC0346174A1360042000F07CFA3A
:100BDC00144B1B681946042000F044FA114B1B6897
:100BEC0019460120FFF7C8FB062000F06DFA4FF400
:100BFC009671062000F036FA0DE0FFF733FF042063
:100C0C0000F04AFA0346002B07D0054B33221A702A
:100C1C0003E000BF02E000BF00E000BF00BF80BDEA
:100C2C00C40100202001002080B485B000AF154B1A
:100C3C009B69144A43F001039361124B9B6903F0C7
:100C4C000103BB60BB680F4BDB690E4A43F080535A
:100C5C00D3610C4BDB6903F080537B607B680A4BE0
:100C6C005B68FB60FB6823F0E063FB60FB6843F0B0
:100C7C000073FB60044AFB68536000BF1437BD4629
:100C8C0080BC7047001002400000014080B584B069
:100C9C0000AF78607B681B68B3F1804F13D10C4BAD
:100CAC00DB690B4A43F00103D361094BDB6903F0A9
:100CBC000103FB60FB68002200211C2000F087FF71
:100CCC001C2000F0A0FF00BF1037BD4680BD00BF48
:100CDC000010024080B588B000AF786007F11003B7
:100CEC0000221A605A609A60DA607B681B681F4A9F
:100CFC00934237D11E4BDB691D4A43F40033D36159
:100D0C001B4BDB6903F40033FB60FB68184B9B69DE
:100D1C00174A43F004039361154B9B6903F00403DA
:100D2C00BB60BB6804233B6102237B610323FB6133
:100D3C0007F1100319460F4801F030F808233B6106
:100D4C0000237B610023BB6107F11003194609489E
:100D5C0001F024F800220021262000F038FF262084
:100D6C0000F051FF00BF2037BD4680BD004400405D
:100D7C00001002400008014080B400AFFEE780B4D0
:100D8C0000AFFEE780B400AFFEE780B400AFFEE733
:100D9C0080B400AFFEE780B400AF00BFBD4680BC9E
:100DAC00704780B400AF00BFBD4680BC704780B4B4
:100DBC0000AF00BFBD4680BC704780B500AF00F0EF
:100DCC0013FE00BF80BD000080B500AF024801F0EB
:100DDC005DFE00BF80BD00BF7C01002080B500AF70
:100DEC00024802F0ABFA00BF80BD00BFD00100206A
:100DFC0080B586B000AF7860144A154BD31A7B616E
:100E0C007B693B61134B1B68002B02D1114B124ABF
:100E1C001A60104B1A687B6813443A699A4207D2DD
:100E2C0002F0B4FE03460C221A604FF0FF3309E0C7
:100E3C00084B1B68FB60074B1A687B681344054A18
:100E4C001360FB6818461837BD4680BD002800208B
:100E5C00000400002C0100202802002080B400AF08
:100E6C0000BFBD4680BC704780B584B000AF034660
:100E7C003960FB710C2002F0B3FE0346FB60FB688B
:100E8C00002B01D1002309E0FB68FA791A70FB688A
:100E9C003A685A60FB6800229A60FB681846103763
:100EAC00BD4680BD80B582B000AF7860786802F036
:100EBC009FFE00BF0837BD4680BD000080B487B0E0
:100ECC0000AF7860384B1B78072B68D0364B1B78FB
:100EDC00002B09D1344A7B685360334B1B780133A8
:100EEC00DAB2314B1A705BE02F4B5B687B610023ED
:100EFC003B610023FB600EE07B695B68FA6813447E
:100F0C00FB607B685B68FA689A4208D87B693B6136
:100F1C007B699B687B617B69002BEDD100E000BF96
:100F2C003B69002B13D17B687A699A607B695A689C
:100F3C007B685B68D21A7B695A601B4A7B6853607A
:100F4C00194B1B780133DAB2174B1A7028E03B6946
:100F5C007A689A607B687A699A607B69002B06D103
:100F6C007B685A68FB68D21A7B685A6010E07B6811
:100F7C005B68BB607B685A687B695968FB68CB1AF5
:100F8C001A447B685A60FA68BB68D21A7B695A604B
:100F9C00054B1B780133DAB2034B1A7000E000BF2B
:100FAC001C37BD4680BC7047C801002080B582B09C
:100FBC0000AF0C4B1B78002B10D00A4B5B687B608E
:100FCC007B689B68074A53607868FFF76BFF054B9B
:100FDC001B78013BDAB2034B1A7000E000BF0837F4
:100FEC00BD4680BDC801002080B400AF044B002278
:100FFC005A60034B00221A7000BFBD4680BC70477C
:10100C00C801002080B582B000AF144B1B78002BB8
:10101C0020D0124B5B685A68013A5A600F4B5B68E0
:10102C005B68002B17D10023FB7109E00B4B5B684D
:10103C001B78FB71FB790A4A0121D154FFF7B6FFEB
:10104C00064B1B78002B06D0044B5B685B68002BAF
:10105C00ECD000E000BF0837BD4680BDC8010020C1
:10106C003001002080B584B000AF03463960FB71BD
:10107C003B68084AA2FB0323DA08FB7911461846A1
:10108C00FFF7F2FEF860F868FFF718FF00BF1037A3
:10109C00BD4680BDCDCCCCCC80B483B000AF034674
:1010AC00FB71FB79074AD35C012B05D1FB79054A0F
:1010BC000021D154012300E0002318460C37BD4613
:1010CC0080BC70473001002080B584B000AF03466F
:1010DC00FB71FB79204A0021D154204B5B68FB60EB
:1010EC000023BB6009E0FB681B78FA799A4208D0B0
:1010FC00FB68BB60FB689B68FB60FB68002BF2D154
:10110C0000E000BFFB68002B22D0BB68002B04D191
:10111C00FB689B68114A536003E0FB689A68BB68E4
:10112C009A60FB689B68002B08D0FB689B68596829
:10113C00FB685A68FB689B680A445A60F868FFF7BA
:10114C00B1FE064B1B78013BDAB2044B1A7000E07F
:10115C0000BF1037BD4680BD30010020C801002003
:10116C0080B400AF094B0A221A70094B14221A7072
:10117C00084B14221A70084B1E221A70074B282297
:10118C001A7000BFBD4680BC704700BF180100201C
:10119C00190100201A0100201B0100201C01002055
:1011AC0080B500AF0020FFF7FFF803460B4A136031
:1011BC000A4B1B68002B0BD0084B1A68084B1B689A
:1011CC009A4205D0054B1B681946064800F07CFB7B
:1011DC00024B1B68024A136000BF80BD3C0100201B
:1011EC0038010020C044000880B500AF414B1B788B
:1011FC00143B032B74D801A252F823F019120008E7
:10120C003912000877120008AF120008394B15226A
:10121C001A70394B1B6819460120FFF723FF364B18
:10122C001B6819460020FFF7A7F860E00021052095
:10123C00FFF72AF9FFF7B4FF0120FFF72DFF034654
:10124C00002B4FD02B4B16221A702C4B3D221A70B0
:10125C00294B5B6819460120FFF704FF264B5B689E
:10126C0019460020FFF788F83CE001210520FFF724
:10127C000BF9FFF795FF0120FFF70EFF0346002B3C
:10128C0032D01C4B17221A701B4B9B68194601203D
:10129C00FFF7E8FE184B9B6819460020FFF76CF827
:1012AC0022E002210520FFF7EFF8FFF779FF01207C
:1012BC00FFF7F2FE0346002B18D00E4B15221A70C6
:1012CC000E4B3E221A700C4B1B6819460120FFF77F
:1012DC00C9FE094B1B6819460020FFF74DF805E0C5
:1012EC0000BF04E000BF02E000BF00E000BF00BF91
:1012FC0080BD00BF19010020500000201D010020FE
:10130C0080B500AF2F4B1B78143B032B50D801A298
:10131C0052F823F031130008451300086D13000830
:10132C0095130008274B16221A70274B5B68194639
:10133C000220FFF797FE42E000210620FFF7A4F8F9
:10134C000220FFF7A9FE0346002B33D01D4B1622BB
:10135C001A701D4B5B6819460220FFF783FE29E0CB
:10136C0001210620FFF790F80220FFF795FE0346B7
:10137C00002B21D0134B17221A70134B9B68194664
:10138C000220FFF76FFE17E002210620FFF77CF822
:10139C000220FFF781FE0346002B0FD0094B1522CC
:1013AC001A70094B1B6819460220FFF75BFE05E01B
:1013BC0000BF04E000BF02E000BF00E000BF00BFC0
:1013CC0080BD00BF1A0100205000002080B500AF86
:1013DC00334B1B781E3B042B56D801A252F823F03A
:1013EC0001140008091400082D1400084F140008FB
:1013FC00731400082A4B1F221A704EE0002105209E
:10140C00FFF742F801210620FFF73EF80120FEF716
:10141C0085FF0346002B39D0214B20221A7035E072
:10142C0002210620FFF730F80120FEF777FF034674
:10143C00002B2DD01A4B21221A701A4B3D221A70F8
:10144C0026E001210520FFF71FF800210620FFF7F9
:10145C001BF80120FEF762FF0346002B1AD0104B3D
:10146C0022221A7016E002210520FFF70DF8012048
:10147C00FEF754FF0346002B0ED0094B1F221A70A7
:10148C00084B3E221A7007E000BF06E000BF04E0E4
:10149C0000BF02E000BF00E000BF00BF80BD00BF86
:1014AC001B0100201D01002080B483B000AF034657
:1014BC00FB71FB79104A52F82320FB7902F57A7202
:1014CC000D4941F82320FB790B4A52F8233042F2A4
:1014DC00107293420AD9FB79074A52F82330FA79F1
:1014EC00A3F51C53103B044941F8223000BF0C37C4
:1014FC00BD4680BC704700BF5000002080B500AFD7
:10150C00604B1B78283B032B00F2B28001A252F8EF
:10151C0023F000BF3115000839150008A515000887
:10152C0011160008574B29221A70A8E0002105203B
:10153C00FEF7AAFF00210620FEF7A6FF0220FEF709
:10154C00EDFE0346002B09D00020FFF7ADFF032072
:10155C00FFF7BAFD0A210320FFF784FD0220FEF7F6
:10156C00F7FE0346002B0DD00320FFF795FD034635
:10157C00002B07D00020FFF797FF4FF4FA710320E0
:10158C00FFF770FD0120FEF7C9FE0346002B71D05A
:10159C003C4B2A221A706DE001210520FEF774FFE6
:1015AC0001210620FEF770FF0220FEF7B7FE03466E
:1015BC00002B09D00120FFF777FF0320FFF784FDF4
:1015CC000A210320FFF74EFD0220FEF7C1FE034661
:1015DC00002B0DD00320FFF75FFD0346002B07D037
:1015EC000120FFF761FF4FF4FA710320FFF73AFD7A
:1015FC000120FEF793FE0346002B3DD0214B2B22FE
:10160C001A7039E002210520FEF73EFF0221062068
:10161C00FEF73AFF0220FEF781FE0346002B09D0AD
:10162C000220FFF741FF0320FFF74EFD0A210320A4
:10163C00FFF718FD0220FEF78BFE0346002B0DD0A2
:10164C000320FFF729FD0346002B07D00220FFF7EC
:10165C002BFF4FF4FA710320FFF704FD0120FEF776
:10166C005DFE0346002B09D0064B29221A7005E0BB
:10167C0000BF04E000BF02E000BF00E000BF00BFFD
:10168C0080BD00BF1C01002080B500AF7A4B1B78D9
:10169C000A3B032B00F2E68001A252F823F000BFB4
:1016AC00BD160008C91600083B1700085F17000894
:1016BC00FEF7DEFE704B0B221A70DAE0FFF794FD9A
:1016CC00FFF71EFE0020FEF729FE0346002B2CD050
:1016DC00FEF7CEFE684B0C221A7000210020FEF79C
:1016EC004BFE664B1B78172B1BD0172B00F3BC80C3
:1016FC00152B02D0162B10D0B6E0614B1B78162B95
:10170C0002D0172B04D011E05E4B1F221A7003E09D
:10171C005C4B20221A7000BF08E05A4B21221A7031
:10172C0004E0584B22221A7000E000BF9CE0FFF747
:10173C004DFE0020FEF7F2FD0346002B00F09680D4
:10174C004D4B0D221A70504B28221A70FEF790FE4A
:10175C008CE0FFF7D3FE0020FEF7E0FD0346002BE4
:10176C007ED0454B0B221A70FEF782FE0120FFF74C
:10177C00ABFC0220FFF7A8FC424B1B781F3B032B52
:10178C0076D801A252F823F0A5170008D717000845
:10179C00091800083B180008384B15221A703B4BEF
:1017AC001B6819460120FFF75DFC384B1B68194676
:1017BC000020FEF7E1FD324B16221A70334B5B68AA
:1017CC0019460220FFF74EFC4BE02C4B15221A70E9
:1017DC002E4B9B6819460120FFF744FC2B4B9B6852
:1017EC0019460020FEF7C8FD254B17221A70274B0F
:1017FC009B6819460220FFF735FC32E01F4B16227E
:10180C001A70224B5B6819460120FFF72BFC1F4B0B
:10181C005B6819460020FEF7AFFD194B15221A70B4
:10182C001A4B1B6819460220FFF71CFC19E0134BDE
:10183C0017221A70154B9B6819460120FFF712FCF2
:10184C00124B9B6819460020FEF796FD0C4B152297
:10185C001A700E4B9B6819460220FFF703FC00E040
:10186C0000BF05E000BF04E000BF02E000BF00E0E5
:10187C0000BF00BF80BD00BF18010020190100206F
:10188C001A0100201B0100201C0100205000002028
:10189C0080B500AF0849094802F070FA4FF47A732A
:1018AC0028220649064801F086FC01220549044815
:1018BC0001F013FD00BF80BDD4440008540100208A
:1018CC00D00100205001002080B582B000AF7860BC
:1018DC0039603B687A680A490A4802F04FFA4FF4BB
:1018EC007A7328220749084801F065FC0122074950
:1018FC00054801F0F2FC00BF0837BD4680BD00BFB3
:10190C00E844000854010020D001002050010020C0
:10191C000C480D490D4A002302E0D458C45004333E
:10192C00C4188C42F9D30A4A0A4C002301E0136014
:10193C000432A242FBD3FFF791FA02F02DF9FEF725
:10194C0001FF704700000020CC0000205445000827
:10195C00CC00002028020020FEE7000080B500AF7C
:10196C00084B1B68074A43F010031360032000F078
:10197C0023F90F2000F008F8FFF756F9002318465A
:10198C0080BD00BF0020024080B582B000AF7860FF
:10199C00124B1A68124B1B7819464FF47A73B3FB2F
:1019AC00F1F3B2FBF3F3184600F03BF90346002BBE
:1019BC0001D001230EE07B680F2B0AD80022796836
:1019CC004FF0FF3000F003F9064A7B6813600023E8
:1019DC0000E0012318460837BD4680BD5C0000209E
:1019EC00640000206000002080B400AF054B1B7821
:1019FC001A46054B1B681344034A136000BFBD46CF
:101A0C0080BC7047640000201402002080B400AF3A
:101A1C00024B1B681846BD4680BC70471402002060
:101A2C0080B485B000AF78607B6803F00703FB607F
:101A3C000C4BDB68BB60BA684FF6FF031340BB600E
:101A4C00FB681A02BB68134343F0BF6343F40033D3
:101A5C00BB60044ABB68D36000BF1437BD4680BC72
:101A6C00704700BF00ED00E080B400AF044BDB68B2
:101A7C001B0A03F007031846BD4680BC704700BF25
:101A8C0000ED00E080B483B000AF0346FB7197F922
:101A9C000730002B0BDBFB7903F01F02064997F98B
:101AAC0007305B09012000FA02F241F8232000BF45
:101ABC000C37BD4680BC704700E100E080B483B0B9
:101ACC0000AF03463960FB7197F90730002B0ADB36
:101ADC003B68DAB20C4997F907301201D2B20B44C9
:101AEC0083F800230AE03B68DAB20849FB7903F07B
:101AFC000F03043B1201D2B20B441A7600BF0C3711
:101B0C00BD4680BC704700BF00E100E000ED00E086
:101B1C0080B489B000AFF860B9607A60FB6803F0FC
:101B2C000703FB61FB69C3F10703042B28BF0423E4
:101B3C00BB61FB690433062B02D9FB69033B00E054
:101B4C0000237B614FF0FF32BB6902FA03F3DA43E7
:101B5C00BB681A407B699A404FF0FF317B6901FAF0
:101B6C0003F3D9437B680B40134318462437BD4617
:101B7C0080BC704780B582B000AF78607B68013B59
:101B8C00B3F1807F01D301230FE00A4A7B68013B4C
:101B9C0053600F214FF0FF30FFF790FF054B0022F1
:101BAC009A60044B07221A60002318460837BD467A
:101BBC0080BD00BF10E000E080B582B000AF78605F
:101BCC007868FFF72DFF00BF0837BD4680BD80B594
:101BDC0086B000AF0346B9607A60FB7300237B616B
:101BEC00FFF742FF78617A68B9687869FFF790FF70
:101BFC00024697F90F3011461846FFF75FFF00BFFA
:101C0C001837BD4680BD80B582B000AF0346FB716E
:101C1C0097F907301846FFF735FF00BF0837BD4668
:101C2C0080BD80B582B000AF78607868FFF7A2FF06
:101C3C00034618460837BD4680BD80B485B000AF5A
:101C4C0078600023FB737B6893F82130022B08D05B
:101C5C007B6804229A637B68002283F8202001238E
:101C6C0020E07B681B681A687B681B6822F00E02F8
:101C7C001A607B681B681A687B681B6822F001027B
:101C8C001A607B681A6C7B68DB6B012101FA02F22B
:101C9C005A607B68012283F821207B68002283F83C
:101CAC002020FB7B18461437BD4680BC70470000D3
:101CBC0080B584B000AF78600023FB737B6893F829
:101CCC002130022B05D07B6804229A630123FB731D
:101CDC0051E07B681B681A687B681B6822F00E0257
:101CEC001A607B681B681A687B681B6822F001020B
:101CFC001A607B681B68224A934229D07B681B6858
:101D0C00204A934222D07B681B681F4A93421AD008
:101D1C007B681B681D4A934212D07B681B681C4A67
:101D2C0093420AD07B681B681A4A934202D14FF443
:101D3C0080130EE04FF080730BE04FF4803308E01B
:101D4C004FF4805305E04FF4807302E0102300E061
:101D5C000123114A53607B68012283F821207B68A0
:101D6C00002283F820207B685B6B002B03D07B6800
:101D7C005B6B78689847FB7B18461037BD4680BD77
:101D8C00080002401C0002403000024044000240A7
:101D9C00580002406C0002400000024080B48BB03E
:101DAC0000AF7860396000237B6200233B6248E11E
:101DBC0001227B6A02FA03F3FB613B681B68FA6938
:101DCC001340BB61BA69FB699A4240F037813B68AA
:101DDC005B68A34A93425ED0A14A934275D8A14A4C
:101DEC00934258D09F4A93426FD89F4A934252D005
:101DFC009D4A934269D89D4A93424CD09B4A934248
:101E0C0063D89B4A934246D0994A93425DD8122B91
:101E1C002AD8122B59D801A252F823F0A31E00087D
:101E2C007D1E00088F1E0008D11E0008D71E00085A
:101E3C00D71E0008D71E0008D71E0008D71E0008A2
:101E4C00D71E0008D71E0008D71E0008D71E000892
:101E5C00D71E0008D71E0008D71E0008D71E000882
:101E6C00851E0008991E0008824A934213D02CE06C
:101E7C003B68DB683B6229E03B68DB6804333B6210
:101E8C0024E03B68DB6808333B621FE03B68DB689F
:101E9C000C333B621AE03B689B68002B02D1042395
:101EAC003B6213E03B689B68012B05D108233B6226
:101EBC007B68FA691A6109E008233B627B68FA695E
:101ECC005A6103E000233B6200E000BFBB69FF2BBB
:101EDC0001D87B6801E07B6804337B61BB69FF2B15
:101EEC0002D87B6A9B0002E07B6A083B9B003B614B
:101EFC007B691A680F213B6901FA03F3DB431A4033
:101F0C00396A3B6901FA03F31A437B691A603B682F
:101F1C005B6803F08053002B00F09080564B9B695C
:101F2C00554A43F001039361534B9B6903F0010342
:101F3C00BB60BB68514A7B6A9B08023352F8233062
:101F4C00FB607B6A03F003039B000F2202FA03F38E
:101F5C00DB43FA681340FB607B68494A93420DD01F
:101F6C007B68484A934207D07B68474A934201D129
:101F7C00022304E0032302E0012300E000237A6A39
:101F8C0002F0030292009340FA681343FB603B4952
:101F9C007B6A9B080233FA6841F823203B685B6834
:101FAC0003F48033002B06D0384B1A683749BB69D1
:101FBC0013430B6006E0354B1A68BB69DB433349AE
:101FCC0013400B603B685B6803F40033002B06D0B6
:101FDC002E4B5A682D49BB6913434B6006E02B4BC3
:101FEC005A68BB69DB43294913404B603B685B680B
:101FFC0003F48013002B06D0244B9A682349BB6949
:10200C0013438B6006E0214B9A68BB69DB431F4985
:10201C0013408B603B685B6803F40013002B06D005
:10202C001A4BDA681949BB691343CB6006E0174BAE
:10203C00DA68BB69DB4315491340CB607B6A01331B
:10204C007B623B681A687B6A22FA03F3002B7FF4ED
:10205C00AFAE00BF00BF2C37BD4680BC704700BF81
:10206C00000032100000311000002210000021107E
:10207C00000012100000111000100240000001407E
:10208C0000080140000C0140001001400004014018
:10209C0080B485B000AF78600B467B807B689A6813
:1020AC007B881340002B02D00123FB7301E000233B
:1020BC00FB73FB7B18461437BD4680BC704780B45D
:1020CC0083B000AF78600B467B8013467B707B78C7
:1020DC00002B03D07A887B681A6103E07B881A0492
:1020EC007B681A6100BF0C37BD4680BC704780B45A
:1020FC0085B000AF78600B467B807B68DB68FB604B
:10210C007A88FB6813401A04FB68D9437B880B4020
:10211C001A437B681A6100BF1437BD4680BC7047F8
:10212C0080B586B000AF78607B68002B01D10123AD
:10213C006CE27B681B6803F00103002B00F08780C6
:10214C00924B5B6803F00C03042B0CD08F4B5B6839
:10215C0003F00C03082B12D18C4B5B6803F4803317
:10216C00B3F5803F0BD1894B1B6803F40033002B74
:10217C006CD07B685B68002B68D1012346E27B68DE
:10218C005B68B3F5803F06D1804B1B687F4A43F4F4
:10219C00803313602EE07B685B68002B0CD17B4B8B
:1021AC001B687A4A23F480331360784B1B68774A98
:1021BC0023F4802313601DE07B685B68B3F5A02FCC
:1021CC000CD1724B1B68714A43F4802313606F4B24
:1021DC001B686E4A43F4803313600BE06B4B1B6837
:1021EC006A4A23F480331360684B1B68674A23F4F4
:1021FC00802313607B685B68002B13D0FFF706FC11
:10220C00386108E0FFF702FC02463B69D31A642BE5
:10221C0001D90323FAE15D4B1B6803F40033002B57
:10222C00F0D014E0FFF7F2FB386108E0FFF7EEFBAB
:10223C0002463B69D31A642B01D90323E6E1534BC5
:10224C001B6803F40033002BF0D100E000BF7B6867
:10225C001B6803F00203002B63D04C4B5B6803F04C
:10226C000C03002B0BD0494B5B6803F00C03082BC1
:10227C001CD1464B5B6803F48033002B16D1434BC7
:10228C001B6803F00203002B05D07B681B69012B34
:10229C0001D00123BAE13D4B1B6823F0F8027B68A7
:1022AC005B69DB00394913430B603AE07B681B69BF
:1022BC00002B20D0364B01221A60FFF7A7FB3861A8
:1022CC0008E0FFF7A3FB02463B69D31A022B01D9A6
:1022DC0003239BE12D4B1B6803F00203002BF0D072
:1022EC002A4B1B6823F0F8027B685B69DB002749EB
:1022FC0013430B6015E0264B00221A60FFF786FB98
:10230C00386108E0FFF782FB02463B69D31A022BC7
:10231C0001D903237AE11D4B1B6803F00203002B48
:10232C00F0D17B681B6803F00803002B3AD07B6864
:10233C009B69002B19D0174B01221A60FFF766FB23
:10234C00386108E0FFF762FB02463B69D31A022BA7
:10235C0001D903235AE10D4B5B6A03F00203002BF6
:10236C00F0D0012000F0D8FA1CE00A4B00221A60D1
:10237C00FFF74CFB38610FE0FFF748FB02463B6967
:10238C00D31A022B08D9032340E100BF00100240EE
:10239C0000004242800442429E4B5B6A03F00203FF
:1023AC00002BE9D17B681B6803F00403002B00F0C1
:1023BC00A6800023FB75974BDB6903F08053002B41
:1023CC000DD1944BDB69934A43F08053D361914B0D
:1023DC00DB6903F08053BB60BB680123FB758E4B3C
:1023EC001B6803F48073002B18D18B4B1B688A4A33
:1023FC0043F480731360FFF709FB386108E0FFF7C3
:10240C0005FB02463B69D31A642B01D90323FDE07B
:10241C00814B1B6803F48073002BF0D07B68DB6866
:10242C00012B06D17B4B1B6A7A4A43F001031362E2
:10243C002DE07B68DB68002B0CD1764B1B6A754A50
:10244C0023F001031362734B1B6A724A23F00403DB
:10245C0013621CE07B68DB68052B0CD16D4B1B6A8F
:10246C006C4A43F0040313626A4B1B6A694A43F0DB
:10247C00010313620BE0674B1B6A664A23F00103EE
:10248C001362644B1B6A634A23F0040313627B6878
:10249C00DB68002B15D0FFF7B9FA38610AE0FFF7BB
:1024AC00B5FA02463B69D31A41F28832934201D9FC
:1024BC000323ABE0574B1B6A03F00203002BEED057
:1024CC0014E0FFF7A3FA38610AE0FFF79FFA02461F
:1024DC003B69D31A41F28832934201D9032395E028
:1024EC004C4B1B6A03F00203002BEED1FB7D012B3E
:1024FC0005D1484BDB69474A23F08053D3617B6895
:10250C00DB69002B00F08180424B5B6803F00C030D
:10251C00082B61D07B68DB69022B46D13F4B002234
:10252C001A60FFF773FA386108E0FFF76FFA02469A
:10253C003B69D31A022B01D9032367E0354B1B6887
:10254C0003F00073002BF0D17B681B6AB3F5803F5E
:10255C0008D1304B5B6823F400327B689B682D49B3
:10256C0013434B602B4B5B6823F474127B68196A22
:10257C007B685B6A0B43274913434B60274B012253
:10258C001A60FFF743FA386108E0FFF73FFA02469A
:10259C003B69D31A022B01D9032337E01D4B1B686F
:1025AC0003F00073002BF0D02FE01C4B00221A60BC
:1025BC00FFF72CFA386108E0FFF728FA02463B696E
:1025CC00D31A022B01D9032320E0124B1B6803F012
:1025DC000073002BF0D118E07B68DB69012B01D173
:1025EC00012313E00B4B5B68FB60FB6803F4803248
:1025FC007B681B6A9A4206D1FB6803F470127B68F5
:10260C005B6A9A4201D0012300E000231846183778
:10261C00BD4680BD00100240007000406000424288
:10262C0080B584B000AF786039607B68002B01D135
:10263C000123D0E06A4B1B6803F007033A689A4207
:10264C0010D9674B1B6823F0070265493B6813439D
:10265C000B60634B1B6803F007033A689A4201D086
:10266C000123B8E07B681B6803F00203002B20D029
:10267C007B681B6803F00403002B05D0594B5B6887
:10268C00584A43F4E06353607B681B6803F008030B
:10269C00002B05D0534B5B68524A43F46053536094
:1026AC00504B5B6823F0F0027B689B684D491343E9
:1026BC004B607B681B6803F00103002B40D07B68E8
:1026CC005B68012B07D1474B1B6803F40033002BCD
:1026DC0015D101237FE07B685B68022B07D1414B4E
:1026EC001B6803F00073002B09D1012373E03D4BF1
:1026FC001B6803F00203002B01D101236BE0394B63
:10270C005B6823F003027B685B68364913434B60BC
:10271C00FFF77CF9F8600AE0FFF778F90246FB68EE
:10272C00D31A41F28832934201D9032353E02D4B43
:10273C005B6803F00C027B685B689B009A42EBD1F0
:10274C00274B1B6803F007033A689A4210D2244BBC
:10275C001B6823F0070222493B6813430B60204B94
:10276C001B6803F007033A689A4201D0012332E058
:10277C007B681B6803F00403002B08D0194B5B68C3
:10278C0023F4E0627B68DB68164913434B607B687B
:10279C001B6803F00803002B09D0124B5B6823F471
:1027AC0060527B681B69DB000E4913434B6000F0E1
:1027BC0021F802460B4B5B681B0903F00F030A4917
:1027CC00CB5C22FA03F3094A1360094B1B681846C9
:1027DC00FFF7DAF8002318461037BD4680BD00BF5E
:1027EC000020024000100240004500085C00002060
:1027FC006000002090B48AB000AF2A4B3C1D0FCB78
:10280C0084E80F0040F201233B800023FB6100238E
:10281C00BB6100237B6200237B6100233B62224B64
:10282C005B68FB61FB6903F00C03042B02D0082BE3
:10283C0003D02DE01D4B3B622DE0FB699B0C03F09C
:10284C000F0307F12802134413F8243C7B61FB6946
:10285C0003F48033002B13D0134B5B685B0C03F039
:10286C00010307F12802134413F8283CBB617B6970
:10287C000E4A02FB03F2BB69B2FBF3F37B6204E08A
:10288C007B690B4A02FB03F37B627B6A3B6202E0CF
:10289C00064B3B6200BF3B6A18462837BD4690BCCE
:1028AC00704700BFF04400080010024000127A008C
:1028BC0000093D0080B400AF024B1B681846BD46B2
:1028CC0080BC70475C00002080B500AFFFF7F2FFC2
:1028DC000246054B5B681B0A03F007030349CB5CFC
:1028EC0022FA03F3184680BD001002401045000880
:1028FC0080B500AFFFF7DEFF0246054B5B68DB0AD5
:10290C0003F007030349CB5C22FA03F3184680BD9E
:10291C00001002401045000880B485B000AF78600C
:10292C000A4B1B680A4AA2FB03235B0A7A6802FB68
:10293C0003F3FB6000BFFB685A1EFA60002BF9D151
:10294C0000BF00BF1437BD4680BC70475C00002040
:10295C00D34D621080B582B000AF78607B68002BDD
:10296C0001D1012341E07B6893F83D30DBB2002BB1
:10297C0006D17B68002283F83C207868FEF786F944
:10298C007B68022283F83D207B681A687B680433DD
:10299C001946104600F06AFA7B68012283F846203B
:1029AC007B68012283F83E207B68012283F83F205C
:1029BC007B68012283F840207B68012283F8412048
:1029CC007B68012283F842207B68012283F8432034
:1029DC007B68012283F844207B68012283F8452020
:1029EC007B68012283F83D20002318460837BD463A
:1029FC0080BD000080B485B000AF78607B6893F830
:102A0C003D30DBB2012B01D0012335E07B68022283
:102A1C0083F83D207B681B68DA687B681B6842F092
:102A2C000102DA607B681B68164A934209D07B6806
:102A3C001B68B3F1804F04D07B681B68124A934229
:102A4C0011D17B681B689B6803F00703FB60FB6874
:102A5C00062B10D07B681B681A687B681B6842F0D9
:102A6C0001021A6007E07B681B681A687B681B68A8
:102A7C0042F001021A60002318461437BD4680BC90
:102A8C00704700BF002C01400004004080B582B0AC
:102A9C0000AF78607B681B681B6903F00203022B94
:102AAC0022D17B681B68DB6803F00203022B1BD16D
:102ABC007B681B686FF002021A617B6801221A772F
:102ACC007B681B689B6903F00303002B03D07868B9
:102ADC0000F0B1F905E0786800F0A4F9786800F02E
:102AEC00B3F97B6800221A777B681B681B6903F0BB
:102AFC000403042B22D17B681B68DB6803F00403FE
:102B0C00042B1BD17B681B686FF004021A617B6875
:102B1C0002221A777B681B689B6903F44073002BB5
:102B2C0003D0786800F087F905E0786800F07AF94E
:102B3C00786800F089F97B6800221A777B681B683B
:102B4C001B6903F00803082B22D17B681B68DB6828
:102B5C0003F00803082B1BD17B681B686FF008027D
:102B6C001A617B6804221A777B681B68DB6903F0A7
:102B7C000303002B03D0786800F05DF905E078685A
:102B8C0000F050F9786800F05FF97B6800221A7742
:102B9C007B681B681B6903F01003102B22D17B6828
:102BAC001B68DB6803F01003102B1BD17B681B68C0
:102BBC006FF010021A617B6808221A777B681B6819
:102BCC00DB6903F44073002B03D0786800F033F911
:102BDC0005E0786800F026F9786800F035F97B6834
:102BEC0000221A777B681B681B6903F00103012B19
:102BFC000ED17B681B68DB6803F00103012B07D146
:102C0C007B681B686FF001021A617868FDF7E0FEC3
:102C1C007B681B681B6903F08003802B0ED17B68DB
:102C2C001B68DB6803F08003802B07D17B681B6873
:102C3C006FF080021A61786800F067FA7B681B6895
:102C4C001B6903F04003402B0ED17B681B68DB68CB
:102C5C0003F04003402B07D17B681B686FF04002E8
:102C6C001A61786800F0F9F87B681B681B6903F03F
:102C7C002003202B0ED17B681B68DB6803F020033C
:102C8C00202B07D17B681B686FF020021A617868D3
:102C9C0000F032FA00BF0837BD4680BD80B584B065
:102CAC0000AF786039607B6893F83C30012B01D120
:102CBC000223B3E07B68012283F83C207B6802226C
:102CCC0083F83D207B681B689B68FB60FB6823F0E6
:102CDC007703FB60FB6823F47F43FB607B681B6816
:102CEC00FA689A603B681B68B3F5005F3ED0B3F599
:102CFC00005F00F28780B3F5805F00F08580B3F54C
:102D0C00805F7FD8702B1AD0702B7BD8602B50D063
:102D1C00602B77D8502B3CD0502B73D8402B58D0ED
:102D2C00402B6FD8302B64D0302B6BD8202B60D03D
:102D3C00202B67D8002B5CD0102B5AD062E07B681C
:102D4C0018683B6899683B685A683B68DB6800F018
:102D5C005CF97B681B689B68FB60FB6843F077033E
:102D6C00FB607B681B68FA689A604EE07B681868A9
:102D7C003B6899683B685A683B68DB6800F045F92A
:102D8C007B681B689A687B681B6842F480429A6077
:102D9C003BE07B6818683B6859683B68DB681A46FF
:102DAC0000F0BCF87B681B685021184600F013F942
:102DBC002BE07B6818683B6859683B68DB681A46EF
:102DCC0000F0DAF87B681B686021184600F003F904
:102DDC001BE07B6818683B6859683B68DB681A46DF
:102DEC0000F09CF87B681B684021184600F0F3F853
:102DFC000BE07B681A683B681B681946104600F0AC
:102E0C00EAF802E000BF00E000BF7B68012283F813
:102E1C003D207B68002283F83C20002318461037A5
:102E2C00BD4680BD80B483B000AF786000BF0C3766
:102E3C00BD4680BC704780B483B000AF786000BFE3
:102E4C000C37BD4680BC704780B483B000AF78604F
:102E5C0000BF0C37BD4680BC704780B483B000AF58
:102E6C00786000BF0C37BD4680BC704780B485B01D
:102E7C0000AF786039607B681B68FB607B68254A13
:102E8C00934207D07B68B3F1804F03D07B68224A12
:102E9C00934208D1FB6823F07003FB603B685B68CE
:102EAC00FA681343FB607B681A4A934207D07B682D
:102EBC00B3F1804F03D07B68174A934208D1FB686B
:102ECC0023F44073FB603B68DB68FA681343FB60D8
:102EDC00FB6823F080023B685B691343FB607B68F3
:102EEC00FA681A603B689A687B68DA623B681A6811
:102EFC007B689A627B68074A934203D13B681A69E4
:102F0C007B681A637B6801225A6100BF1437BD4687
:102F1C0080BC7047002C01400004004080B487B096
:102F2C0000AFF860B9607A60FB681B6A7B61FB6874
:102F3C001B6A23F00102FB681A62FB689B693B6108
:102F4C003B6923F0F0033B617B681B013A69134337
:102F5C003B617B6923F00A037B617A69BB6813438D
:102F6C007B61FB683A699A61FB687A691A6200BFF7
:102F7C001C37BD4680BC704780B487B000AFF8608A
:102F8C00B9607A60FB681B6A23F01002FB681A6256
:102F9C00FB689B697B61FB681B6A3B617B6923F463
:102FAC0070437B617B681B037A6913437B613B69CC
:102FBC0023F0A0033B61BB681B013A6913433B61DF
:102FCC00FB687A699A61FB683A691A6200BF1C3720
:102FDC00BD4680BC704780B485B000AF7860396066
:102FEC007B689B68FB60FB6823F07003FB603A68AE
:102FFC00FB68134343F00703FB607B68FA689A6035
:10300C0000BF1437BD4680BC704780B487B000AF9A
:10301C00F860B9607A603B60FB689B687B617B6998
:10302C0023F47F437B613B681A027B681A43BB68BD
:10303C0013437A6913437B61FB687A699A6000BF1A
:10304C001C37BD4680BC704780B485B000AF78603B
:10305C0039607B6893F83C30012B01D1022341E0AD
:10306C007B68012283F83C207B68022283F83D2098
:10307C007B681B685B68FB607B681B689B68BB603C
:10308C00FB6823F07003FB603B681B68FA68134312
:10309C00FB607B681B68FA685A607B681B68144A83
:1030AC00934209D07B681B68B3F1804F04D07B68D6
:1030BC001B68104A93420CD1BB6823F08003BB60A1
:1030CC003B685B68BA681343BB607B681B68BA6873
:1030DC009A607B68012283F83D207B68002283F88C
:1030EC003C20002318461437BD4680BC704700BFF7
:1030FC00002C01400004004080B483B000AF786025
:10310C0000BF0C37BD4680BC704780B483B000AFA5
:10311C00786000BF0C37BD4680BC704780B582B06C
:10312C0000AF78607B68002B01D101233FE07B6806
:10313C0093F83D30DBB2002B06D17B68002283F87C
:10314C003C207868FDF7C6FD7B68242283F83D207F
:10315C007B681B68DA687B681B6822F40052DA60B3
:10316C00786800F085FC7B681B681A697B681B68B3
:10317C0022F490421A617B681B685A697B681B6851
:10318C0022F02A025A617B681B68DA687B681B682C
:10319C0042F40052DA607B6800221A647B682022B9
:1031AC0083F83D207B68202283F83E2000231846BC
:1031BC000837BD4680BD80B58AB002AFF860B960F3
:1031CC003B601346FB8000237B61FB6893F83D302A
:1031DC00DBB2202B7CD1BB68002B02D0FB88002BF0
:1031EC0001D1012375E0FB6893F83C30012B01D130
:1031FC0002236EE0FB68012283F83C20FB6800226E
:10320C001A64FB68212283F83D20FEF7FFFB7861EE
:10321C00FB68FA889A84FB68FA88DA84FB689B68F6
:10322C00B3F5805F08D1FB681B69002B04D1002328
:10323C00FB61BB68BB6103E0BB68FB610023BB6146
:10324C00FB68002283F83C202AE03B6800937B69F2
:10325C0000228021F86800F038FA0346002B01D0D8
:10326C00032336E0FB69002B0BD1BB691B881A4684
:10327C00FB681B68C2F308025A60BB690233BB616E
:10328C0007E0FB691A78FB681B685A60FB6901331D
:10329C00FB61FB68DB8C9BB2013B9AB2FB68DA8466
:1032AC00FB68DB8C9BB2002BCFD13B6800937B6916
:1032BC0000224021F86800F008FA0346002B01D0E8
:1032CC00032306E0FB68202283F83D20002300E066
:1032DC00022318462037BD4680BD80B584B000AFB0
:1032EC00F860B9601346FB80FB6893F83E30DBB2A4
:1032FC00202B1DD1BB68002B02D0FB88002B01D1E9
:10330C00012316E0FB6893F83C30012B01D102231A
:10331C000FE0FB68012283F83C20FB6800221A6353
:10332C00FB881A46B968F86800F019FA034600E001
:10333C00022318461037BD4680BD000080B58AB008
:10334C0000AF78607B681B681B687B627B681B68BE
:10335C00DB683B627B681B685B69FB610023BB61BC
:10336C0000237B617B6A03F00F03BB61BB69002BFD
:10337C000DD17B6A03F02003002B08D03B6A03F0CD
:10338C002003002B03D0786800F0C9FA7BE1BB69FD
:10339C00002B00F0B180FB6903F00103002B05D179
:1033AC003B6A03F49073002B00F0A6807B6A03F059
:1033BC000103002B0AD03B6A03F48073002B05D069
:1033CC007B681B6C43F001027B681A647B6A03F018
:1033DC000403002B0AD0FB6903F00103002B05D07A
:1033EC007B681B6C43F002027B681A647B6A03F0F7
:1033FC000203002B0AD0FB6903F00103002B05D05C
:10340C007B681B6C43F004027B681A647B6A03F0D4
:10341C000803002B0FD03B6A03F02003002B04D1D0
:10342C00FB6903F00103002B05D07B681B6C43F098
:10343C0008027B681A647B681B6C002B00F01E81F1
:10344C007B6A03F02003002B07D03B6A03F02003B8
:10345C00002B02D0786800F062FA7B681B685B690D
:10346C0003F04003002B14BF01230023DBB27B616C
:10347C007B681B6C03F00803002B02D17B69002BCB
:10348C0031D0786800F0A4F97B681B685B6903F0A5
:10349C004003002B23D07B681B685A697B681B6830
:1034AC0022F040025A617B689B6B002B13D07B6827
:1034BC009B6B764A5A637B689B6B1846FEF7F8FB4E
:1034CC000346002B16D07B689B6B5B6B7A68926B08
:1034DC00104698470EE0786800F0E3F80AE0786848
:1034EC0000F0DFF806E0786800F0DBF87B6800227B
:1034FC001A64C3E000BFC1E07B681B6B012B40F07A
:10350C00A1807B6A03F01003002B00F09B803B6AC8
:10351C0003F01003002B00F095800023FB607B6808
:10352C001B681B68FB607B681B685B68FB60FB6847
:10353C007B681B685B6903F04003002B4ED07B68F3
:10354C009B6B1B685B683B823B8A002B00F098806E
:10355C007B689B8D3A8A9A4280F092807B683A8A8B
:10356C00DA857B689B6B9B69202B2BD07B681B6857
:10357C00DA687B681B6822F48072DA607B681B68EF
:10358C005A697B681B6822F001025A617B681B68D0
:10359C005A697B681B6822F040025A617B682022C2
:1035AC0083F83E207B6800221A637B681B68DA680C
:1035BC007B681B6822F01002DA607B689B6B1846F4
:1035CC00FEF73BFB7B689A8D7B68DB8D9BB2D31A35
:1035DC009BB21946786800F06DF851E07B689A8DC3
:1035EC007B68DB8D9BB2D31A7B827B68DB8D9BB2B5
:1035FC00002B47D07B8A002B44D07B681B68DA6891
:10360C007B681B6822F49072DA607B681B685A69CD
:10361C007B681B6822F001025A617B68202283F8C8
:10362C003E207B6800221A637B681B68DA687B6823
:10363C001B6822F01002DA607B8A1946786800F069
:10364C0039F81FE07B6A03F08003002B08D03B6A3B
:10365C0003F08003002B03D0786800F0F9F812E037
:10366C007B6A03F04003002B0DD03B6A03F0400350
:10367C00002B08D0786800F03AF904E000BF02E0B3
:10368C0000BF00E000BF2837BD4680BD35380008BC
:10369C0080B483B000AF786000BF0C37BD4680BCEF
:1036AC00704780B483B000AF786000BF0C37BD4664
:1036BC0080BC704780B483B000AF78600B467B80D1
:1036CC0000BF0C37BD4680BC704780B584B000AFDE
:1036DC00F860B9603B601346FB712CE0BB69B3F139
:1036EC00FF3F28D0BB69002B07D0FEF78FF90246AD
:1036FC003B68D31ABA699A421DD2FB681B68DA6818
:10370C00FB681B6822F4D072DA60FB681B685A698C
:10371C00FB681B6822F001025A61FB68202283F8C7
:10372C003D20FB68202283F83E20FB68002283F8B2
:10373C003C2003230FE0FB681B681A68BB6813402E
:10374C00BA689A420CBF01230023DBB21A46FB79FC
:10375C009A42C3D0002318461037BD4680BD80B4B2
:10376C0085B000AFF860B9601346FB80FB68BA689F
:10377C009A62FB68FA889A85FB68FA88DA85FB6896
:10378C0000221A64FB68222283F83E20FB68002288
:10379C0083F83C20FB681B68DA68FB681B6842F402
:1037AC008072DA60FB681B685A69FB681B6842F020
:1037BC0001025A61FB681B68DA68FB681B6842F0FF
:1037CC002002DA60002318461437BD4680BC7047CF
:1037DC0080B483B000AF78607B681B68DA687B6864
:1037EC001B6822F49072DA607B681B685A697B68EC
:1037FC001B6822F001025A617B681B6B012B07D1FD
:10380C007B681B68DA687B681B6822F01002DA6040
:10381C007B68202283F83E207B6800221A6300BF5D
:10382C000C37BD4680BC704780B584B000AF786063
:10383C007B685B6AFB60FB680022DA85FB68002210
:10384C00DA84F868FFF72DFF00BF1037BD4680BD46
:10385C0080B485B000AF78607B6893F83D30DBB204
:10386C00212B3ED17B689B68B3F5805F14D17B68BC
:10387C001B69002B10D17B681B6AFB60FB681B88E3
:10388C001A467B681B68C2F308025A607B681B6A85
:10389C009A1C7B681A6208E07B681B6A591C7A6860
:1038AC0011621A787B681B685A607B68DB8C9BB250
:1038BC00013B9BB27A681946D184002B0FD17B68EF
:1038CC001B68DA687B681B6822F08002DA607B6810
:1038DC001B68DA687B681B6842F04002DA600023E0
:1038EC0000E0022318461437BD4680BC704780B5F3
:1038FC0082B000AF78607B681B68DA687B681B68F5
:10390C0022F04002DA607B68202283F83D20786840
:10391C00FFF7BEFE002318460837BD4680BD80B5B4
:10392C0086B000AF78607B6893F83E30DBB2222B18
:10393C0040F099807B689B68B3F5805F17D17B68FA
:10394C001B69002B13D100237B617B689B6A3B6155
:10395C007B681B685B689BB2C3F308039AB23B6934
:10396C001A807B689B6A9A1C7B689A6226E07B684B
:10397C009B6A7B6100233B617B689B68B3F5805F2E
:10398C0007D07B689B68002B0AD17B681B69002BD6
:10399C0006D17B681B685B68DAB27B691A7008E039
:1039AC007B681B685B68DBB203F07F03DAB27B6970
:1039BC001A707B689B6A5A1C7B689A627B68DB8DE9
:1039CC009BB2013B9BB27A681946D185002B48D13A
:1039DC007B681B68DA687B681B6822F02002DA605F
:1039EC007B681B68DA687B681B6822F48072DA607B
:1039FC007B681B685A697B681B6822F001025A615C
:103A0C007B68202283F83E207B681B6B012B23D123
:103A1C007B6800221A637B681B68DA687B681B680A
:103A2C0022F01002DA607B681B681B6803F010033D
:103A3C00102B0AD10023FB607B681B681B68FB60A2
:103A4C007B681B685B68FB60FB687B689B8D194619
:103A5C007868FFF72FFE02E07868FCF761FE002320
:103A6C0002E0002300E0022318461837BD4680BD53
:103A7C0080B584B000AF78607B681B681B6923F449
:103A8C0040517B68DA687B681B680A431A617B6863
:103A9C009A687B681B691A437B685B691343BB603C
:103AAC007B681B68DB6823F4B05323F00C037A6843
:103ABC001268B9680B43D3607B681B685B6923F49D
:103ACC0040717B689A697B681B680A435A617B6802
:103ADC001B682C4A934203D1FEF70AFFF86002E000
:103AEC00FEF7F2FEF860FA6813469B0013449A0046
:103AFC001A447B685B689B00B2FBF3F3224AA2FB7F
:103B0C0003235B091901FA6813469B0013449A00BE
:103B1C001A447B685B689B00B2FBF3F21A4BA3FB65
:103B2C0002035B09642000FB03F3D31A1B0132333D
:103B3C00154AA2FB03235B0903F0F0031944FA684E
:103B4C0013469B0013449A001A447B685B689B00E5
:103B5C00B2FBF3F20C4BA3FB02035B09642000FBEA
:103B6C0003F3D31A1B013233074AA2FB03235B096D
:103B7C0003F00F027B681B680A449A6000BF103781
:103B8C00BD4680BD003801401F85EB51014B1868C4
:103B9C00704700BF6800002070B500260C4D0D4C1E
:103BAC00641BA410A64209D100F06CFC00260A4D3F
:103BBC000A4C641BA410A64205D170BD55F8043BF9
:103BCC0098470136EEE755F8043B98470136F2E783
:103BDC004C4500084C4500084C4500085045000871
:103BEC00024B0146186800F05FB800BF6800002067
:103BFC00024B0146186800F00BB800BF68000020AB
:103C0C0003460244934200D1704703F8011BF9E7C5
:103C1C0038B50546002943D051F8043C0C1F002B45
:103C2C00B8BFE41800F0CAF81E4A1368104633B93E
:103C3C00636014602846BDE8384000F0C5B8A34264
:103C4C000AD921686218934201BF1A685B6852183E
:103C5C00226063600460EDE71A465B680BB1A34217
:103C6C00FAD911685018A0420BD1206801445018A1
:103C7C0083421160DED118685B68014411605360A7
:103C8C00D8E702D90C232B60D4E7206821188B428B
:103C9C0001BF19685B680918216063605460C9E74B
:103CAC0038BD00BF40010020F8B5CD1C25F0030540
:103CBC0008350C2D38BF0C25002D064601DBA9421A
:103CCC0003D90C2333600020F8BD00F077F82149AC
:103CDC000A6814469CB9204F3B6823B921463046EC
:103CEC0000F03CF838602946304600F037F8431CA9
:103CFC0023D10C233046336000F066F8E3E72368E9
:103D0C005B1B17D40B2B03D923601C44256004E0E8
:103D1C006368A2420CBF0B605360304600F054F84D
:103D2C0004F10B00231D20F00700C21ACCD01B1A83
:103D3C00A350C9E722466468CCE7C41C24F00304F2
:103D4C00A042E3D0211A304600F008F80130DDD152
:103D5C00CFE700BF400100204401002038B500230C
:103D6C00054D044608462B60FDF742F8431C02D172
:103D7C002B6803B1236038BD180200200EB46FF01D
:103D8C00004100B59CB01DAB0290069007910491C8
:103D9C000848094953F8042B0591006802A90193BE
:103DAC0000F074F80022029B1A701CB05DF804EB52
:103DBC0003B07047680000200802FFFF014800F0C4
:103DCC00FBBA00BF20020020014800F0F6BA00BF89
:103DDC00200200202DE9F0478E6882469E420C4658
:103DEC0090461F4638D88A8912F4906F32D02568D5
:103DFC0009690133A5EB010965694B4405EB4505E0
:103E0C0005EBD5756D109D4238BF1D46530531D558
:103E1C002946FFF749FF064650B90C234FF0FF30F7
:103E2C00CAF80030A38943F04003A381BDE8F087B2
:103E3C004A46216900F0D0FAA38923F4906343F039
:103E4C008003A38126614E4426603E466561A5EB46
:103E5C000905A560BE4200D93E463246414620685F
:103E6C0000F0C8FAA36822689B1B32440020A360B0
:103E7C002260DBE72A4600F0D7FA06460028E1D19B
:103E8C0050462169FFF7C4FEC7E700002DE9F04F4B
:103E9C0098468B8907461B060D4614469DB00ED5D9
:103EAC000B6963B94021FFF7FFFE2860286120B938
:103EBC000C233B604FF0FF30D1E040236B610023BB
:103ECC00099320238DF8293030234FF00109CDF8C8
:103EDC000C80DFF8A4818DF82A3023469A4613F81B
:103EEC00012B0AB1252AF9D1BAEB040B0BD05B4696
:103EFC00224629463846FFF76DFF013000F0AA80B4
:103F0C00099A5A4409929AF80030002B00F0A280CA
:103F1C0000234FF0FF32CDE905230AF1010A049387
:103F2C0007938DF853301A935446052214F8011B4D
:103F3C00514800F043FA049AD8B9D00644BF202364
:103F4C008DF85330110744BF2B238DF853309AF85A
:103F5C0000302A2B15D0544600204FF00A0C079A3B
:103F6C00214611F8013B303B092B4ED9B0B10792D9
:103F7C0014E0A0EB080309FA03F31343A2460493DD
:103F8C00D2E7039B191D1B680391002BBBBF5B423F
:103F9C0042F0020207930793B8BF049223782E2BAA
:103FAC000CD163782A2B35D1039B02341A1D1B6864
:103FBC000392002BB8BF4FF0FF330593DFF8C8A076
:103FCC0003225046217800F0F9F940B14023A0EBD0
:103FDC000A0003FA00F0049B01340343049314F821
:103FEC00011B062225488DF8281000F0E7F900285F
:103FFC0038D0234B1BBB039B073323F00703083339
:10400C000393099B3344099367E70C4601200CFB8F
:10401C000232A5E700234FF00A0C19460134059330
:10402C00204610F8012B303A092A03D9002BC5D0B1
:10403C000591C3E7044601230CFB0121F0E703AB18
:10404C0000932A4638460F4B04A9AFF30080421C5C
:10405C000646D6D1AB895B063FF52CAF09981DB04F
:10406C00BDE8F08F03AB00932A463846054B04A9F4
:10407C0000F07CF8EBE700BF18450008224500086B
:10408C0000000000E13D00081E4500082DE9F04746
:10409C00164699468A680B6907469342B8BF134681
:1040AC00336091F843200C46DDF820800AB10133CF
:1040BC0033602368990642BF336802333360256846
:1040CC0015F0060506D104F1190AE36832689B1A4B
:1040DC00AB4228DC94F84320131E226818BF01233E
:1040EC0092062DD44946384604F14302C0470130AC
:1040FC0020D02368E56803F00603042B18BF0025C5
:10410C0032684FF00006A36808BFAD1A226908BFD9
:10411C0025EAE5759342C4BF9B1AED181A34B542D3
:10412C001AD1002008E00123524649463846C047C0
:10413C00013003D14FF0FF30BDE8F0870135C4E703
:10414C003020E11881F843005A1C94F845102244A1
:10415C00023382F84310C5E701232246494638460C
:10416C00C0470130E6D00136D9E700002DE9FF4702
:10417C000C46277E9146782F80469A460C9904F17E
:10418C00430207D8622F0AD8002F00F0D980582F8D
:10419C0000F0A48004F1420684F842703AE0A7F1E2
:1041AC006303152BF6D801A050F823F01142000838
:1041BC0025420008A1410008A1410008A1410008C6
:1041CC00A141000825420008A1410008A1410008B6
:1041DC00A1410008A14100083343000855420008E2
:1041EC0015430008A1410008A141000855430008EF
:1041FC00A141000855420008A1410008A141000856
:10420C001D4300080B6804F142061A1D1B680A6066
:10421C0084F842300123A4E0256808682E0600F1DA
:10422C0004030AD505680B60002D03DA2D236D42BB
:10423C0084F843300A235E4819E015F0400F0568F6
:10424C000B6018BF2DB2EFE70B682568181D0860CE
:10425C00280601D51D6802E06906FBD51D886F2F65
:10426C000CBF08230A235248002184F843106668C7
:10427C00002EA8BF2168A660A4BF21F00401216014
:10428C000DB9002E4DD01646B5FBF3F103FB1157BB
:10429C00C75D06F8017D2F46BB420D46F4D9082BAD
:1042AC000BD12368DF0708D5236961689942DEBF0B
:1042BC00302306F8013C06F1FF36921B22614B4677
:1042CC0021464046CDF800A003AAFFF7DFFE0130DF
:1042DC004CD14FF0FF3004B0BDE8F087344884F87F
:1042EC0045700E68236856F8045B1F060E6014D5E3
:1042FC00D90744BF43F0200323601DB9236823F082
:10430C00200323601023AFE7236843F020032360CE
:10431C007823284884F84530E3E75E0648BFADB201
:10432C00E6E71646BBE70B6826681D1D60690D6045
:10433C0035061B6801D5186002E07106FBD51880A4
:10434C00002316462361BAE70B681A1D0A601E6823
:10435C0000213046626800F031F808B1801B6060C3
:10436C0063682361002384F84330A8E7324649464A
:10437C0040462369D0470130ABD023689B0713D448
:10438C00E068039B9842B8BF1846A4E70123324665
:10439C0049464046D04701309BD00135E36803992C
:1043AC005B1AAB42F2DCEBE7002504F11906F5E7EA
:1043BC00294500083A45000870477047034610B578
:1043CC00C9B202449342184601D1002003E004789C
:1043DC0001338C42F6D110BD0A44914200F1FF33F7
:1043EC0000D1704710B511F8014B914203F8014F01
:1043FC00F9D110BD884210B501EB020402D98442F8
:10440C00234607D8431EA14208D011F8012B03F80C
:10441C00012FF8E7014602448A4200D110BD13F87F
:10442C00014D02F8014DF7E7F8B5074614460E4664
:10443C0021B91146BDE8F840FFF736BC22B9FFF7A9
:10444C00E7FB25462846F8BD00F014F8A0420FD231
:10445C0021463846FFF728FC05460028F2D03146A5
:10446C002246FFF7B9FF31463846FFF7D1FBE9E7A3
:10447C003546E7E751F8043C181F002BBCBF0B581E
:10448C00C0187047F8B500BFF8BC08BC9E46704712
:0C449C00F8B500BFF8BC08BC9E46704795
:1044A8005065646573747269616E206475726174B5
:1044B800696F6E3A20000000547261666669632075
:1044C8006475726174696F6E3A20000048454C4CFF
:1044D8004F210D0A0000000025730D0A000000009E
:1044E800257325640D0A0000020304050607080960
:1044F8000A0B0C0D0E0F1010000000000000000049
:104508000102030406070809000000000102030471
:10451800232D302B2000686C4C00656667454647A4
:104528000030313233343536373839414243444527
:104538004600303132333435363738396162636496
:0445480065660000A4
:04454C003101000831
:044550000D01000851
:104554000100000000000000000000000000000056
:104564000100000000000000000000000000000046
:104574000100000000000000000000000000000036
:104584000100000000000000000000000000000026
:10459400C80000000000000000000000000000004F
:1045A40088130000B80B0000D00700000024F400BA
:1045B40010000000010000006C000020000000005A
:1045C40000000000000000000000000000000000E7
:1045D40000000000000000000000000000000000D7
:1045E40000000000000000000000000000000000C7
:1045F40000000000000000000000000000000000B7
:1046040000000000000000000000000000000000A6
:0C4614000000000000000000000000009A
:040000050800191DB9
:00000001FF
