:020000040800F2
:100000000028002059110008710700087707000830
:100010007D0700088307000889070008000000002A
:100020000000000000000000000000008F07000832
:100030009B07000800000000A7070008B30700089E
:10004000A1110008A1110008A1110008A1110008C8
:10005000A1110008A1110008A1110008A1110008B8
:10006000A1110008A1110008A1110008A1110008A8
:10007000A1110008A1110008A1110008A111000898
:10008000A1110008A1110008A1110008A111000888
:10009000A1110008A1110008A1110008A111000878
:1000A000A1110008A1110008A1110008A111000868
:1000B000C1070008A111000800000000A1110008FC
:1000C000A11100080000000000000000A1110008BC
:1000D00000000000A1110008A111000800000000AC
:1000E000A1110008A1110008A111000800000000E2
:1000F0000000000000000000000000000000000000
:0C01000000000000000000005FF808F1A3
:10010C0010B5054C237833B9044B13B10448AFF345
:10011C0000800123237010BDCC00002000000000E3
:10012C007C29000808B5034B1BB103490348AFF306
:10013C00008008BD00000000D00000207C290008D1
:10014C0080B582B000AF00237B6096E04F4A7B689D
:10015C0052F823204E497B6841F823204D4A7B6896
:10016C0052F8232049497B6841F823207B68022BF5
:10017C001FD07B68022B27DC7B68002B03D07B68AD
:10018C00012B0BD020E00121434801F0EFFA03468C
:10019C001946404A7B6842F8231016E002213E487B
:1001AC0001F0E4FA034619463A4A7B6842F82310F8
:1001BC000BE00421384801F0D9FA03461946354AB8
:1001CC007B6842F8231000E000BF304A7B6852F88D
:1001DC00232030497B6851F823309A424AD12B4A6C
:1001EC007B6852F823202A497B6851F823309A42C5
:1001FC0040D1274A7B6852F8232028497B6851F864
:10020C0023309A4222D0224A7B6852F82320234979
:10021C007B6841F82320214A7B6852F82330002B5D
:10022C0009D11F4A7B684FF4967142F82310786805
:10023C0000F03CF81EE01B4A7B68002142F82310BA
:10024C00194A7B68002142F8231013E0144A7B689A
:10025C0052F823305A1E12497B6841F82320104A69
:10026C007B6852F82330002B04D10C4A7B680121A7
:10027C0042F823107B6801337B607B68032B7FF78C
:10028C0065AF00BF00BF0837BD4680BD1000002021
:10029C002000002000000020000801403000002059
:1002AC004000002008010020E800002080B483B04A
:1002BC0000AF78600F4A7B68012142F823100E4A88
:1002CC007B6852F82330002B05D10B4A7B68012147
:1002DC0042F8231009E0094A7B68012142F82310F7
:1002EC00044A7B68002142F8231000BF0C37BD463E
:1002FC0080BC7047F8000020E800002008010020B6
:10030C0080B483B000AF7860094A7B6852F8233020
:10031C00012B06D1064A7B68002142F823100123E9
:10032C0000E0002318460C37BD4680BC704700BF68
:10033C00F800002080B483B000AF7860064A7B6878
:10034C0052F82330012B0CBF01230023DBB21846DB
:10035C000C37BD4680BC70470801002080B500AF4B
:10036C0001224FF47C61024801F017FA00BF80BDF6
:10037C000008014080B582B000AF03460A46FB710D
:10038C001346BB71FB79052B02D0062B1ED040E027
:10039C00BB79022B12D0022B38DC002B02D0012BA4
:1003AC0006D033E0002240211C4801F0F6F90CE0A5
:1003BC0000228021194801F0F0F906E000224FF4E8
:1003CC008071164801F0E9F900BF1FE0BB79022BE0
:1003DC0014D0022B1CDC002B02D0012B07D017E011
:1003EC0000224FF400710D4801F0D7F90DE0002206
:1003FC004FF48061094801F0D0F906E000224FF477
:10040C000061064801F0C9F900BF01E000BF00E03F
:10041C0000BF00BF0837BD4680BD00BF00080140CB
:10042C0080B582B000AF03460A46FB711346BB7120
:10043C00FB79052B02D0062B1ED040E0BB79022B9A
:10044C0012D0022B38DC002B02D0012B06D033E06B
:10045C00012240211C4801F0A0F90CE0012280216E
:10046C00194801F09AF906E001224FF48071164800
:10047C0001F093F900BF1FE0BB79022B14D0022BC3
:10048C001CDC002B02D0012B07D017E001224FF40B
:10049C0000710D4801F081F90DE001224FF48061EB
:1004AC00094801F07AF906E001224FF40061064890
:1004BC0001F073F900BF01E000BF00E000BF00BF16
:1004CC000837BD4680BD00BF0008014080B500AFB5
:1004DC0000F062FE00F016F800F09CF800F04EF808
:1004EC00074801F0ABFD00F06BFA00F025FB4FF470
:1004FC00FA71002000F0A2FA00F0A2FDFCE700BFA8
:10050C003001002080B590B000AF07F1180328220D
:10051C000021184602F060F93B1D00221A605A6057
:10052C009A60DA601A610223BB610123BB6210235B
:10053C00FB6200237B6307F11803184601F046F9B0
:10054C000346002B01D000F0B1F80F237B60002391
:10055C00BB600023FB6000233B6100237B613B1DE0
:10056C000021184601F0B2FB0346002B01D000F02D
:10057C009DF800BF4037BD4680BD000080B586B0F9
:10058C0000AF07F1080300221A605A609A60DA6023
:10059C003B4600221A605A601D4B4FF080421A6095
:1005AC001B4B09225A601A4B00229A60184B41F6D9
:1005BC003F72DA60164B00221A61154B00229A61C9
:1005CC00134801F0EBFC0346002B01D000F06EF851
:1005DC004FF48053BB6007F1080319460C4801F037
:1005EC0081FE0346002B01D000F060F800233B6035
:1005FC0000237B603B461946054802F049F8034648
:10060C00002B01D000F052F800BF1837BD4680BD5A
:10061C003001002080B586B000AF07F1080300223E
:10062C001A605A609A60DA60184B9B69174A43F05B
:10063C0004039361154B9B6903F004037B607B6897
:10064C0001224FF47E61124801F0A7F80723BB602A
:10065C000023FB6001233B6107F1080319460C489A
:10066C0000F00AFF4FF47E63BB600123FB600023A4
:10067C003B6102237B6107F108031946044800F033
:10068C00FBFE00BF1837BD4680BD00BF0010024006
:10069C000008014080B582B000AF786000F09EF990
:1006AC00FFF74EFD00BF0837BD4680BD80B400AFDC
:1006BC0072B600BFFEE7000080B485B000AF154BEA
:1006CC009B69144A43F001039361124B9B6903F03D
:1006DC000103BB60BB680F4BDB690E4A43F08053D0
:1006EC00D3610C4BDB6903F080537B607B680A4B56
:1006FC005B68FB60FB6823F0E063FB60FB6843F026
:10070C008063FB60044AFB68536000BF1437BD462E
:10071C0080BC7047001002400000014080B584B0DE
:10072C0000AF78607B681B68B3F1804F13D10C4B22
:10073C00DB690B4A43F00103D361094BDB6903F01E
:10074C000103FB60FB68002200211C2000F05DFE11
:10075C001C2000F076FE00BF1037BD4680BD00BFE8
:10076C000010024080B400AFFEE780B400AFFEE79B
:10077C0080B400AFFEE780B400AFFEE780B400AFFA
:10078C00FEE780B400AF00BFBD4680BC704780B4AC
:10079C0000AF00BFBD4680BC704780B400AF00BF47
:1007AC00BD4680BC704780B500AF00F03BFD00BF7C
:1007BC0080BD000080B500AF024801F08BFC00BF8B
:1007CC0080BD00BF3001002080B586B000AF7860DE
:1007DC00144A154BD31A7B617B693B61134B1B6825
:1007EC00002B02D1114B124A1A60104B1A687B680D
:1007FC0013443A699A4207D201F0B4FF03460C2223
:10080C001A604FF0FF3309E0084B1B68FB60074B85
:10081C001A687B681344054A1360FB68184618373E
:10082C00BD4680BD002800200004000020010020EF
:10083C009801002080B400AF00BFBD4680BC70475B
:10084C0080B584B000AF03463960FB710C2001F019
:10085C00B3FF0346FB60FB68002B01D1002309E0CA
:10086C00FB68FA791A70FB683A685A60FB680022D8
:10087C009A60FB6818461037BD4680BD80B582B0C3
:10088C0000AF7860786801F09FFF00BF0837BD4665
:10089C0080BD000080B487B000AF7860384B1B7807
:1008AC00042B68D0364B1B78002B09D1344A7B685B
:1008BC005360334B1B780133DAB2314B1A705BE067
:1008CC002F4B5B687B6100233B610023FB600EE0D8
:1008DC007B695B68FA681344FB607B685B68FA6849
:1008EC009A4208D87B693B617B699B687B617B6919
:1008FC00002BEDD100E000BF3B69002B13D17B68CE
:10090C007A699A607B695A687B685B68D21A7B69E2
:10091C005A601B4A7B685360194B1B780133DAB25F
:10092C00174B1A7028E03B697A689A607B687A6981
:10093C009A607B69002B06D17B685A68FB68D21AD7
:10094C007B685A6010E07B685B68BB607B685A68A8
:10095C007B695968FB68CB1A1A447B685A60FA6841
:10096C00BB68D21A7B695A60054B1B780133DAB22B
:10097C00034B1A7000E000BF1C37BD4680BC7047AB
:10098C007801002080B582B000AF0C4B1B78002B97
:10099C0010D00A4B5B687B607B689B68074A53608E
:1009AC007868FFF76BFF054B1B78013BDAB2034B02
:1009BC001A7000E000BF0837BD4680BD78010020EA
:1009CC0080B400AF044B00225A60034B00221A7013
:1009DC0000BFBD4680BC70477801002080B582B056
:1009EC0000AF144B1B78002B20D0124B5B685A685D
:1009FC00013A5A600F4B5B685B68002B17D10023E0
:100A0C00FB7109E00B4B5B681B78FB71FB790A4AA5
:100A1C000121D154FFF7B6FF064B1B78002B06D0F3
:100A2C00044B5B685B68002BECD000E000BF083720
:100A3C00BD4680BD780100202401002080B584B023
:100A4C0000AF03463960FB713B68084AA2FB0323E5
:100A5C00DA08FB7911461846FFF7F2FEF860F868E1
:100A6C00FFF718FF00BF1037BD4680BDCDCCCCCCF6
:100A7C0080B483B000AF0346FB71FB79074AD35CAB
:100A8C00012B05D1FB79054A0021D154012300E04B
:100A9C00002318460C37BD4680BC7047240100204B
:100AAC0080B584B000AF0346FB71FB79204A00216E
:100ABC00D154204B5B68FB600023BB6009E0FB68F2
:100ACC001B78FA799A4208D0FB68BB60FB689B687C
:100ADC00FB60FB68002BF2D100E000BFFB68002B31
:100AEC0022D0BB68002B04D1FB689B68114A536071
:100AFC0003E0FB689A68BB689A60FB689B68002BF4
:100B0C0008D0FB689B685968FB685A68FB689B684F
:100B1C000A445A60F868FFF7B1FE064B1B78013B9C
:100B2C00DAB2044B1A7000E000BF1037BD4680BD2E
:100B3C00240100207801002080B400AF094B0A2268
:100B4C001A70094B14221A70084B14221A70084B95
:100B5C001E221A70074B28221A7000BFBD4680BC9B
:100B6C00704700BF18010020190100201A01002055
:100B7C001B0100201C01002080B500AF324B1B78FC
:100B8C00143B032B5CD801A252F823F0A90B0008EC
:100B9C00BD0B0008ED0B00081D0C00082A4B15229C
:100BAC001A702A4B1B6819460120FFF747FF48E0D3
:100BBC000120FFF75DFF0346002B08D0224B1622C5
:100BCC001A70224B5B6819460120FFF737FF002192
:100BDC000520FFF7CFFB02210520FFF721FC30E0B9
:100BEC000120FFF745FF0346002B08D0164B1722B8
:100BFC001A70164B9B6819460120FFF71FFF012145
:100C0C000520FFF7B7FB00210520FFF709FC18E0D2
:100C1C000120FFF72DFF0346002B08D00A4B1522AD
:100C2C001A700A4B1B6819460120FFF707FF0221B7
:100C3C000520FFF79FFB01210520FFF7F1FB00E0EA
:100C4C0000BF00BF80BD00BF190100205400002070
:100C5C0080B500AF324B1B78143B032B5CD801A240
:100C6C0052F823F0810C0008950C0008C50C000804
:100C7C00F50C00082A4B16221A702A4B5B68194691
:100C8C000220FFF7DBFE48E00220FFF7F1FE0346EF
:100C9C00002B08D0224B16221A70224B5B68194687
:100CAC000220FFF7CBFE00210620FFF763FB022199
:100CBC000620FFF7B5FB30E00220FFF7D9FE034614
:100CCC00002B08D0164B17221A70164B9B6819462E
:100CDC000220FFF7B3FE01210620FFF74BFB00219A
:100CEC000620FFF79DFB18E00220FFF7C1FE03462C
:100CFC00002B08D00A4B15221A700A4B1B68194698
:100D0C000220FFF79BFE02210620FFF733FB012197
:100D1C000620FFF785FB00E000BF00BF80BD00BFD1
:100D2C001A0100205400002080B500AF3D4B1B7809
:100D3C001E3B042B72D801A252F823F05D0D000863
:100D4C00690D00089D0D0008C90D0008FD0D000877
:100D5C00FFF704FB334B1F221A7060E00120FFF7F2
:100D6C00CFFA0346002B02D02E4B20221A70022100
:100D7C000520FFF755FB00210620FFF751FB002152
:100D8C000520FFF7F7FA01210620FFF7F3FA46E0FA
:100D9C000120FFF7B5FA0346002B02D0214B21228C
:100DAC001A7001210620FFF73BFB00210520FFF7FD
:100DBC00E1FA02210620FFF7DDFA30E00120FFF70F
:100DCC009FFA0346002B02D0164B22221A700021E8
:100DDC000520FFF725FB02210620FFF721FB01214F
:100DEC000520FFF7C7FA00210620FFF7C3FA16E02B
:100DFC000120FFF785FA0346002B02D0094B1F2276
:100E0C001A7001210520FFF70BFB02210520FFF7CB
:100E1C00B1FA00210620FFF7ADFA00E000BF00BFD9
:100E2C0080BD00BF1B01002080B483B000AF03461F
:100E3C00FB71FB79104A52F82320FB7902F57A7288
:100E4C000D4941F82320FB790B4A52F8233042F22A
:100E5C00107293420AD9FB79074A52F82330FA7977
:100E6C00A3F51C53103B044941F8223000BF0C374A
:100E7C00BD4680BC704700BF5400002080B500AF59
:100E8C006E4B1B78283B032B00F2CE8001A252F84C
:100E9C0023F000BFB10E0008B90E0008390F00088E
:100EAC00B70F0008654B29221A70C4E00120FFF728
:100EBC0027FA0346002B02D0604B2A221A7002211B
:100ECC000520FFF7ADFA02210620FFF7A9FA002151
:100EDC000520FFF74FFA00210620FFF74BFA0220FE
:100EEC00FFF70EFA0346002B06D00020FFF79CFFFD
:100EFC000A210320FFF7A2FD0220FFF71BFA03468D
:100F0C00002B0FD00320FFF7B3FD0346002B00F09E
:100F1C008D800020FFF788FF4FF4FA710320FFF754
:100F2C008DFD83E00320FFF7BBFD7FE00120FFF781
:100F3C00E7F90346002B02D0404B2B221A700021FC
:100F4C000520FFF76DFA00210620FFF769FA012151
:100F5C000520FFF70FFA01210620FFF70BFA0220FC
:100F6C00FFF7CEF90346002B06D00120FFF75CFFFC
:100F7C000A210320FFF762FD0220FFF7DBF903468D
:100F8C00002B0ED00320FFF773FD0346002B4FD030
:100F9C000120FFF749FF4FF4FA710320FFF74EFDD4
:100FAC0046E00320FFF77CFD42E00120FFF7A8F9A3
:100FBC000346002B02D0214B29221A700121052057
:100FCC00FFF72EFA01210620FFF72AFA022105204D
:100FDC00FFF7D0F902210620FFF7CCF90220FFF72A
:100FEC008FF90346002B06D00220FFF71DFF0A21C4
:100FFC000320FFF723FD0220FFF79CF90346002B8B
:10100C000ED00320FFF734FD0346002B12D0022034
:10101C00FFF70AFF4FF4FA710320FFF70FFD09E009
:10102C000320FFF73DFD05E000BF04E000BF02E038
:10103C0000BF00E000BF00BF80BD00BF1C0100204E
:10104C0080B500AF3C4B1B780A3B032B72D801A236
:10105C0052F823F0711000087D100008E71000080A
:10106C0023110008FFF77AF9334B0B221A7062E058
:10107C000020FFF745F90346002B29D0FFF76EF946
:10108C002D4B0C221A702D4B1B78172B1AD0172BAB
:10109C001CDC152B02D0162B10D017E0284B1B781C
:1010AC00162B02D0172B04D011E0264B1F221A70DE
:1010BC0003E0244B20221A7000BF08E0214B2122B0
:1010CC001A7004E01F4B22221A7000E000BF32E0BD
:1010DC00FFF752FDFFF7BCFD2DE00020FFF710F9E4
:1010EC000346002B14D0144B0D221A70164B2822D9
:1010FC001A70124B14221A70114B14221A70012000
:10110C00FFF7CEFC0220FFF7CBFCFFF727F912E02C
:10111C00FFF70AFE0FE00020FFF7F2F80346002B62
:10112C0005D0054B0B221A70FFF718F903E0FFF7F7
:10113C00A5FE00E000BF80BD1801002019010020B1
:10114C001A0100201B0100201C0100200C480D4935
:10115C000D4A002302E0D458C4500433C4188C4206
:10116C00F9D30A4A0A4C002301E013600432A2426C
:10117C00FBD3FFF75FFB01F0FBFAFFF7A7F9704712
:10118C0000000020CC000020BC290008CC0000206E
:10119C0094010020FEE7000080B500AF084B1B68EF
:1011AC00074A43F010031360032000F023F90F20CB
:1011BC0000F008F8FFF780FA0023184680BD00BF46
:1011CC000020024080B582B000AF7860124B1A68E4
:1011DC00124B1B7819464FF47A73B3FBF1F3B2FB45
:1011EC00F3F3184600F03BF90346002B01D0012322
:1011FC000EE07B680F2B0AD8002279684FF0FF3085
:10120C0000F003F9064A7B681360002300E0012319
:10121C0018460837BD4680BD5000002064000020F1
:10122C006000002080B400AF054B1B781A46054BBC
:10123C001B681344034A136000BFBD4680BC704753
:10124C00640000208001002080B400AF024B1B68BA
:10125C001846BD4680BC70478001002080B485B024
:10126C0000AF78607B6803F00703FB600C4BDB6816
:10127C00BB60BA684FF6FF031340BB60FB681A02F1
:10128C00BB68134343F0BF6343F40033BB60044AB1
:10129C00BB68D36000BF1437BD4680BC704700BF2D
:1012AC0000ED00E080B400AF044BDB681B0A03F0D8
:1012BC0007031846BD4680BC704700BF00ED00E038
:1012CC0080B483B000AF0346FB7197F90730002B55
:1012DC000BDBFB7903F01F02064997F907305B091A
:1012EC00012000FA02F241F8232000BF0C37BD4662
:1012FC0080BC704700E100E080B483B000AF0346CF
:10130C003960FB7197F90730002B0ADB3B68DAB2C6
:10131C000C4997F907301201D2B20B4483F8002321
:10132C000AE03B68DAB20849FB7903F00F03043B8F
:10133C001201D2B20B441A7600BF0C37BD4680BCEA
:10134C00704700BF00E100E000ED00E080B489B020
:10135C0000AFF860B9607A60FB6803F00703FB61CB
:10136C00FB69C3F10703042B28BF0423BB61FB6992
:10137C000433062B02D9FB69033B00E000237B619D
:10138C004FF0FF32BB6902FA03F3DA43BB681A4031
:10139C007B699A404FF0FF317B6901FA03F3D94323
:1013AC007B680B40134318462437BD4680BC7047FE
:1013BC0080B582B000AF78607B68013BB3F1807F71
:1013CC0001D301230FE00A4A7B68013B53600F21D4
:1013DC004FF0FF30FFF790FF054B00229A60044B53
:1013EC0007221A60002318460837BD4680BD00BF8F
:1013FC0010E000E080B582B000AF78607868FFF74D
:10140C002DFF00BF0837BD4680BD80B586B000AF4C
:10141C000346B9607A60FB7300237B61FFF742FFE0
:10142C0078617A68B9687869FFF790FF024697F996
:10143C000F3011461846FFF75FFF00BF1837BD4647
:10144C0080BD80B582B000AF0346FB7197F90730C1
:10145C001846FFF735FF00BF0837BD4680BD80B585
:10146C0082B000AF78607868FFF7A2FF0346184699
:10147C000837BD4680BD000080B48BB000AF7860EB
:10148C00396000237B6200233B6248E101227B6AC6
:10149C0002FA03F3FB613B681B68FA691340BB61FA
:1014AC00BA69FB699A4240F037813B685B68A34A92
:1014BC0093425ED0A14A934275D8A14A934258D028
:1014CC009F4A93426FD89F4A934252D09D4A93426F
:1014DC0069D89D4A93424CD09B4A934263D89B4A0D
:1014EC00934246D0994A93425DD8122B2AD8122B9C
:1014FC0059D801A252F823F07F150008591500089D
:10150C006B150008AD150008B3150008B3150008DD
:10151C00B3150008B3150008B3150008B31500087F
:10152C00B3150008B3150008B3150008B31500086F
:10153C00B3150008B3150008B315000861150008B1
:10154C0075150008824A934213D02CE03B68DB6887
:10155C003B6229E03B68DB6804333B6224E03B6878
:10156C00DB6808333B621FE03B68DB680C333B6293
:10157C001AE03B689B68002B02D104233B6213E00A
:10158C003B689B68012B05D108233B627B68FA6999
:10159C001A6109E008233B627B68FA695A6103E02F
:1015AC0000233B6200E000BFBB69FF2B01D87B68C6
:1015BC0001E07B6804337B61BB69FF2B02D87B6A3B
:1015CC009B0002E07B6A083B9B003B617B691A68CD
:1015DC000F213B6901FA03F3DB431A40396A3B697B
:1015EC0001FA03F31A437B691A603B685B6803F0EA
:1015FC008053002B00F09080564B9B69554A43F06A
:10160C0001039361534B9B6903F00103BB60BB68FF
:10161C00514A7B6A9B08023352F82330FB607B6A89
:10162C0003F003039B000F2202FA03F3DB43FA6877
:10163C001340FB607B68494A93420DD07B68484A53
:10164C00934207D07B68474A934201D1022304E0BE
:10165C00032302E0012300E000237A6A02F0030274
:10166C0092009340FA681343FB603B497B6A9B08EA
:10167C000233FA6841F823203B685B6803F480333B
:10168C00002B06D0384B1A683749BB6913430B60E3
:10169C0006E0354B1A68BB69DB43334913400B60DA
:1016AC003B685B6803F40033002B06D02E4B5A6862
:1016BC002D49BB6913434B6006E02B4B5A68BB6941
:1016CC00DB43294913404B603B685B6803F4801390
:1016DC00002B06D0244B9A682349BB6913438B60BB
:1016EC0006E0214B9A68BB69DB431F4913408B60B2
:1016FC003B685B6803F40013002B06D01A4BDA68C6
:10170C001949BB691343CB6006E0174BDA68BB6918
:10171C00DB4315491340CB607B6A01337B623B682A
:10172C001A687B6A22FA03F3002B7FF4AFAE00BF7A
:10173C0000BF2C37BD4680BC704700BF0000321084
:10174C0000003110000022100000211000001210C7
:10175C000000111000100240000001400008014080
:10176C00000C0140001001400004014080B485B021
:10177C0000AF78600B467B807B689A687B8813404F
:10178C00002B02D00123FB7301E00023FB73FB7BD6
:10179C0018461437BD4680BC704780B483B000AF88
:1017AC0078600B467B8013467B707B78002B03D0D4
:1017BC007A887B681A6103E07B881A047B681A615B
:1017CC0000BF0C37BD4680BC7047000080B586B0AA
:1017DC0000AF78607B68002B01D101236CE27B6841
:1017EC001B6803F00103002B00F08780924B5B68B1
:1017FC0003F00C03042B0CD08F4B5B6803F00C0331
:10180C00082B12D18C4B5B6803F48033B3F5803F0B
:10181C000BD1894B1B6803F40033002B6CD07B6815
:10182C005B68002B68D1012346E27B685B68B3F5EB
:10183C00803F06D1804B1B687F4A43F48033136092
:10184C002EE07B685B68002B0CD17B4B1B687A4AC3
:10185C0023F480331360784B1B68774A23F480237E
:10186C0013601DE07B685B68B3F5A02F0CD1724B45
:10187C001B68714A43F4802313606F4B1B686E4ADC
:10188C0043F4803313600BE06B4B1B686A4A23F400
:10189C0080331360684B1B68674A23F48023136002
:1018AC007B685B68002B13D0FFF7CEFC386108E037
:1018BC00FFF7CAFC02463B69D31A642B01D90323F8
:1018CC00FAE15D4B1B6803F40033002BF0D014E0FD
:1018DC00FFF7BAFC386108E0FFF7B6FC02463B693B
:1018EC00D31A642B01D90323E6E1534B1B6803F491
:1018FC000033002BF0D100E000BF7B681B6803F0C5
:10190C000203002B63D04C4B5B6803F00C03002BE1
:10191C000BD0494B5B6803F00C03082B1CD1464BD6
:10192C005B6803F48033002B16D1434B1B6803F028
:10193C000203002B05D07B681B69012B01D001230E
:10194C00BAE13D4B1B6823F0F8027B685B69DB0056
:10195C00394913430B603AE07B681B69002B20D09C
:10196C00364B01221A60FFF76FFC386108E0FFF775
:10197C006BFC02463B69D31A022B01D903239BE172
:10198C002D4B1B6803F00203002BF0D02A4B1B6875
:10199C0023F0F8027B685B69DB00274913430B607B
:1019AC0015E0264B00221A60FFF74EFC386108E068
:1019BC00FFF74AFC02463B69D31A022B01D90323D9
:1019CC007AE11D4B1B6803F00203002BF0D17B68FE
:1019DC001B6803F00803002B3AD07B689B69002B33
:1019EC0019D0174B01221A60FFF72EFC386108E062
:1019FC00FFF72AFC02463B69D31A022B01D90323B9
:101A0C005AE10D4B5B6A03F00203002BF0D001206E
:101A1C0000F0A6FA1CE00A4B00221A60FFF714FC37
:101A2C0038610FE0FFF710FC02463B69D31A022B1A
:101A3C0008D9032340E100BF0010024000004242DD
:101A4C00800442429E4B5B6A03F00203002BE9D1F7
:101A5C007B681B6803F00403002B00F0A6800023B6
:101A6C00FB75974BDB6903F08053002B0DD1944B26
:101A7C00DB69934A43F08053D361914BDB6903F0EC
:101A8C008053BB60BB680123FB758E4B1B6803F452
:101A9C008073002B18D18B4B1B688A4A43F48073DC
:101AAC001360FFF7D1FB386108E0FFF7CDFB02466E
:101ABC003B69D31A642B01D90323FDE0814B1B68CE
:101ACC0003F48073002BF0D07B68DB68012B06D10C
:101ADC007B4B1B6A7A4A43F0010313622DE07B684F
:101AEC00DB68002B0CD1764B1B6A754A23F0010383
:101AFC001362734B1B6A724A23F0040313621CE0DB
:101B0C007B68DB68052B0CD16D4B1B6A6C4A43F070
:101B1C00040313626A4B1B6A694A43F001031362A4
:101B2C000BE0674B1B6A664A23F001031362644B9C
:101B3C001B6A634A23F0040313627B68DB68002B87
:101B4C0015D0FFF781FB38610AE0FFF77DFB0246F9
:101B5C003B69D31A41F28832934201D90323ABE09B
:101B6C00574B1B6A03F00203002BEED014E0FFF777
:101B7C006BFB38610AE0FFF767FB02463B69D31A3F
:101B8C0041F28832934201D9032395E04C4B1B6AF6
:101B9C0003F00203002BEED1FB7D012B05D1484B4A
:101BAC00DB69474A23F08053D3617B68DB69002BE8
:101BBC0000F08180424B5B6803F00C03082B61D072
:101BCC007B68DB69022B46D13F4B00221A60FFF782
:101BDC003BFB386108E0FFF737FB02463B69D31A41
:101BEC00022B01D9032367E0354B1B6803F000730C
:101BFC00002BF0D17B681B6AB3F5803F08D1304BCA
:101C0C005B6823F400327B689B682D4913434B605F
:101C1C002B4B5B6823F474127B68196A7B685B6AD4
:101C2C000B43274913434B60274B01221A60FFF7E4
:101C3C000BFB386108E0FFF707FB02463B69D31A40
:101C4C00022B01D9032337E01D4B1B6803F00073F3
:101C5C00002BF0D02FE01C4B00221A60FFF7F4FA97
:101C6C00386108E0FFF7F0FA02463B69D31A022B01
:101C7C0001D9032320E0124B1B6803F00073002BE7
:101C8C00F0D118E07B68DB69012B01D1012313E053
:101C9C000B4B5B68FB60FB6803F480327B681B6A50
:101CAC009A4206D1FB6803F470127B685B6A9A4215
:101CBC0001D0012300E0002318461837BD4680BD33
:101CCC0000100240007000406000424280B584B0B9
:101CDC0000AF786039607B68002B01D10123D0E024
:101CEC006A4B1B6803F007033A689A4210D9674B9A
:101CFC001B6823F0070265493B6813430B60634B79
:101D0C001B6803F007033A689A4201D00123B8E03C
:101D1C007B681B6803F00203002B20D07B681B68D8
:101D2C0003F00403002B05D0594B5B68584A43F46D
:101D3C00E06353607B681B6803F00803002B05D03D
:101D4C00534B5B68524A43F460535360504B5B688F
:101D5C0023F0F0027B689B684D4913434B607B6812
:101D6C001B6803F00103002B40D07B685B68012BE0
:101D7C0007D1474B1B6803F40033002B15D101230B
:101D8C007FE07B685B68022B07D1414B1B6803F03B
:101D9C000073002B09D1012373E03D4B1B6803F04A
:101DAC000203002B01D101236BE0394B5B6823F05C
:101DBC0003027B685B68364913434B60FFF744FAB8
:101DCC00F8600AE0FFF740FA0246FB68D31A41F2CA
:101DDC008832934201D9032353E02D4B5B6803F007
:101DEC000C027B685B689B009A42EBD1274B1B680B
:101DFC0003F007033A689A4210D2244B1B6823F075
:101E0C00070222493B6813430B60204B1B6803F00D
:101E1C0007033A689A4201D0012332E07B681B68C1
:101E2C0003F00403002B08D0194B5B6823F4E06229
:101E3C007B68DB68164913434B607B681B6803F0B7
:101E4C000803002B09D0124B5B6823F460527B68AB
:101E5C001B69DB000E4913434B6000F021F802466E
:101E6C000B4B5B681B0903F00F030A49CB5C22FA8E
:101E7C0003F3094A1360094B1B681846FFF7A2F9D4
:101E8C00002318461037BD4680BD00BF002002401D
:101E9C0000100240A429000850000020600000201F
:101EAC0090B48AB000AF2A4B3C1D0FCB84E80F00D6
:101EBC0040F201233B800023FB610023BB61002324
:101ECC007B6200237B6100233B62224B5B68FB61DE
:101EDC00FB6903F00C03042B02D0082B03D02DE07C
:101EEC001D4B3B622DE0FB699B0C03F00F0307F1CC
:101EFC002802134413F8243C7B61FB6903F4803300
:101F0C00002B13D0134B5B685B0C03F0010307F140
:101F1C002802134413F8283CBB617B690E4A02FB70
:101F2C0003F2BB69B2FBF3F37B6204E07B690B4AFF
:101F3C0002FB03F37B627B6A3B6202E0064B3B6273
:101F4C0000BF3B6A18462837BD4690BC704700BF9F
:101F5C00942900080010024000127A0000093D008C
:101F6C0080B485B000AF78600A4B1B680A4AA2FBAC
:101F7C0003235B0A7A6802FB03F3FB6000BFFB6878
:101F8C005A1EFA60002BF9D100BF00BF1437BD46B2
:101F9C0080BC704750000020D34D621080B582B0D9
:101FAC0000AF78607B68002B01D1012341E07B6896
:101FBC0093F83D30DBB2002B06D17B68002283F80E
:101FCC003C207868FEF7AAFB7B68022283F83D2050
:101FDC007B681A687B6804331946104600F06AFA6D
:101FEC007B68012283F846207B68012283F83E201F
:101FFC007B68012283F83F207B68012283F8402014
:10200C007B68012283F841207B68012283F84220FF
:10201C007B68012283F843207B68012283F84420EB
:10202C007B68012283F845207B68012283F83D20E0
:10203C00002318460837BD4680BD000080B485B02B
:10204C0000AF78607B6893F83D30DBB2012B01D098
:10205C00012335E07B68022283F83D207B681B68F6
:10206C00DA687B681B6842F00102DA607B681B68E7
:10207C00164A934209D07B681B68B3F1804F04D099
:10208C007B681B68124A934211D17B681B689B6862
:10209C0003F00703FB60FB68062B10D07B681B6802
:1020AC001A687B681B6842F001021A6007E07B68C3
:1020BC001B681A687B681B6842F001021A600023D7
:1020CC0018461437BD4680BC704700BF002C014039
:1020DC000004004080B582B000AF78607B681B685C
:1020EC001B6903F00203022B22D17B681B68DB689F
:1020FC0003F00203022B1BD17B681B686FF00202FA
:10210C001A617B6801221A777B681B689B6903F054
:10211C000303002B03D0786800F0B1F905E0786870
:10212C0000F0A4F9786800F0B3F97B6800221A7704
:10213C007B681B681B6903F00403042B22D17B68AA
:10214C001B68DB6803F00403042B1BD17B681B6842
:10215C006FF004021A617B6802221A777B681B6895
:10216C009B6903F44073002B03D0786800F087F967
:10217C0005E0786800F07AF9786800F089F97B68F6
:10218C0000221A777B681B681B6903F00803082B75
:10219C0022D17B681B68DB6803F00803082B1BD17A
:1021AC007B681B686FF008021A617B6804221A773F
:1021BC007B681B68DB6903F00303002B03D0786892
:1021CC0000F05DF905E0786800F050F9786800F0EF
:1021DC005FF97B6800221A777B681B681B6903F028
:1021EC001003102B22D17B681B68DB6803F01003F3
:1021FC00102B1BD17B681B686FF010021A617B6877
:10220C0008221A777B681B68DB6903F44073002B88
:10221C0003D0786800F033F905E0786800F026F90F
:10222C00786800F035F97B6800221A777B681B68A8
:10223C001B6903F00103012B0ED17B681B68DB6863
:10224C0003F00103012B07D17B681B686FF00102BF
:10225C001A617868FEF71EFA7B681B681B6903F02D
:10226C008003802B0ED17B681B68DB6803F0800336
:10227C00802B07D17B681B686FF080021A6178682D
:10228C0000F067FA7B681B681B6903F04003402B66
:10229C000ED17B681B68DB6803F04003402B07D131
:1022AC007B681B686FF040021A61786800F0F9F8DF
:1022BC007B681B681B6903F02003202B0ED17B6805
:1022CC001B68DB6803F02003202B07D17B681B689D
:1022DC006FF020021A61786800F032FA00BF0837FC
:1022EC00BD4680BD80B584B000AF786039607B6836
:1022FC0093F83C30012B01D10223B3E07B6801221F
:10230C0083F83C207B68022283F83D207B681B68A5
:10231C009B68FB60FB6823F07703FB60FB6823F48E
:10232C007F43FB607B681B68FA689A603B681B689C
:10233C00B3F5005F3ED0B3F5005F00F28780B3F5D4
:10234C00805F00F08580B3F5805F7FD8702B1AD04A
:10235C00702B7BD8602B50D0602B77D8502B3CD077
:10236C00502B73D8402B58D0402B6FD8302B64D0C7
:10237C00302B6BD8202B60D0202B67D8002B5CD057
:10238C00102B5AD062E07B6818683B6899683B68F0
:10239C005A683B68DB6800F05CF97B681B689B68DB
:1023AC00FB60FB6843F07703FB607B681B68FA6893
:1023BC009A604EE07B6818683B6899683B685A687D
:1023CC003B68DB6800F045F97B681B689A687B68A2
:1023DC001B6842F480429A603BE07B6818683B685B
:1023EC0059683B68DB681A4600F0BCF87B681B68D0
:1023FC005021184600F013F92BE07B6818683B68F5
:10240C0059683B68DB681A4600F0DAF87B681B6891
:10241C006021184600F003F91BE07B6818683B68E4
:10242C0059683B68DB681A4600F09CF87B681B68AF
:10243C004021184600F0F3F80BE07B681A683B6803
:10244C001B681946104600F0EAF802E000BF00E0F5
:10245C0000BF7B68012283F83D207B68002283F853
:10246C003C20002318461037BD4680BD80B483B095
:10247C0000AF786000BF0C37BD4680BC704780B49D
:10248C0083B000AF786000BF0C37BD4680BC70478E
:10249C0080B483B000AF786000BF0C37BD4680BC01
:1024AC00704780B483B000AF786000BF0C37BD4676
:1024BC0080BC704780B485B000AF786039607B68B1
:1024CC001B68FB607B68254A934207D07B68B3F19D
:1024DC00804F03D07B68224A934208D1FB6823F0DB
:1024EC007003FB603B685B68FA681343FB607B68B6
:1024FC001A4A934207D07B68B3F1804F03D07B68B4
:10250C00174A934208D1FB6823F44073FB603B6885
:10251C00DB68FA681343FB60FB6823F080023B68BE
:10252C005B691343FB607B68FA681A603B689A68C6
:10253C007B68DA623B681A687B689A627B68074A38
:10254C00934203D13B681A697B681A637B6801224A
:10255C005A6100BF1437BD4680BC7047002C014047
:10256C000004004080B487B000AFF860B9607A60B6
:10257C00FB681B6A7B61FB681B6A23F00102FB682A
:10258C001A62FB689B693B613B6923F0F0033B617A
:10259C007B681B013A6913433B617B6923F00A0397
:1025AC007B617A69BB6813437B61FB683A699A610A
:1025BC00FB687A691A6200BF1C37BD4680BC704745
:1025CC0080B487B000AFF860B9607A60FB681B6AB2
:1025DC0023F01002FB681A62FB689B697B61FB6845
:1025EC001B6A3B617B6923F470437B617B681B0333
:1025FC007A6913437B613B6923F0A0033B61BB68A1
:10260C001B013A6913433B61FB687A699A61FB6869
:10261C003A691A6200BF1C37BD4680BC704780B453
:10262C0085B000AF786039607B689B68FB60FB68A5
:10263C0023F07003FB603A68FB68134343F0070315
:10264C00FB607B68FA689A6000BF1437BD4680BC9B
:10265C00704780B487B000AFF860B9607A603B60B7
:10266C00FB689B687B617B6923F47F437B613B68E0
:10267C001A027B681A43BB6813437A6913437B6164
:10268C00FB687A699A6000BF1C37BD4680BC7047F6
:10269C0080B485B000AF786039607B6893F83C30CB
:1026AC00012B01D1022341E07B68012283F83C20FD
:1026BC007B68022283F83D207B681B685B68FB60AB
:1026CC007B681B689B68BB60FB6823F07003FB6036
:1026DC003B681B68FA681343FB607B681B68FA68ED
:1026EC005A607B681B68144A934209D07B681B684C
:1026FC00B3F1804F04D07B681B68104A93420CD115
:10270C00BB6823F08003BB603B685B68BA6813430B
:10271C00BB607B681B68BA689A607B68012283F88F
:10272C003D207B68002283F83C2000231846143798
:10273C00BD4680BC704700BF002C01400004004027
:10274C0080B483B000AF786000BF0C37BD4680BC4E
:10275C00704780B483B000AF786000BF0C37BD46C3
:10276C0080BC7047014B1868704700BF68000020A0
:10277C0070B500260C4D0D4C641BA410A64209D15B
:10278C0000F0F6F800260A4D0A4C641BA410A64271
:10279C0005D170BD55F8043B98470136EEE755F866
:1027AC00043B98470136F2E7B4290008B429000825
:1027BC00B4290008B8290008024B0146186800F03B
:1027CC005FB800BF68000020024B0146186800F09B
:1027DC000BB800BF6800002003460244934200D1AE
:1027EC00704703F8011BF9E738B50546002943D0BB
:1027FC0051F8043C0C1F002BB8BFE41800F0AAF8E9
:10280C001E4A1368104633B9636014602846BDE84D
:10281C00384000F0A5B8A3420AD921686218934247
:10282C0001BF1A685B685218226063600460EDE7B0
:10283C001A465B680BB1A342FAD911685018A04232
:10284C000BD120680144501883421160DED1186806
:10285C005B68014411605360D8E702D90C232B60EC
:10286C00D4E7206821188B4201BF19685B680918EE
:10287C00216063605460C9E738BD00BF28010020A7
:10288C00F8B5CD1C25F0030508350C2D38BF0C25EB
:10289C00002D064601DBA94203D90C23336000202E
:1028AC00F8BD00F057F821490A6814469CB9204F2E
:1028BC003B6823B92146304600F03CF83860294685
:1028CC00304600F037F8431C23D10C2330463360DC
:1028DC0000F046F8E3E723685B1B17D40B2B03D9F6
:1028EC0023601C44256004E06368A2420CBF0B60AB
:1028FC005360304600F034F804F10B00231D20F037
:10290C000700C21ACCD01B1AA350C9E72246646830
:10291C00CCE7C41C24F00304A042E3D0211A3046B7
:10292C0000F008F80130DDD1CFE700BF280100200E
:10293C002C01002038B50023054D044608462B60B9
:10294C00FDF742FF431C02D12B6803B1236038BD55
:10295C0084010020014800F009B800BF8C01002060
:10296C00014800F004B800BF8C010020704770478C
:10297C00F8B500BFF8BC08BC9E467047F8B500BF60
:08298C00F8BC08BC9E46704730
:1029940002030405060708090A0B0C0D0E0F10109C
:1029A40000000000000000000102030406070809FB
:0429B40031010008E5
:0429B8000D01000805
:1029BC00010000000000000000000000000000000A
:1029CC0001000000000000000000000000000000FA
:1029DC0001000000000000000000000000000000EA
:1029EC0001000000000000000000000000000000DA
:1029FC002C0100000000000000000000000000009E
:102A0C000024F400D0070000B004000020030000F4
:102A1C0010000000010000006C000020000000000D
:102A2C00000000000000000000000000000000009A
:102A3C00000000000000000000000000000000008A
:102A4C00000000000000000000000000000000007A
:102A5C00000000000000000000000000000000006A
:102A6C00000000000000000000000000000000005A
:0C2A7C000000000000000000000000004E
:040000050800115985
:00000001FF
